{
  "abi": [
    {
      "type": "constructor",
      "inputs": [
        {
          "name": "_destockTokenAddress",
          "type": "address",
          "internalType": "address"
        }
      ],
      "stateMutability": "nonpayable"
    },
    {
      "type": "function",
      "name": "MINIMUM_LIQUIDITY",
      "inputs": [],
      "outputs": [
        {
          "name": "",
          "type": "uint256",
          "internalType": "uint256"
        }
      ],
      "stateMutability": "view"
    },
    {
      "type": "function",
      "name": "balanceOf",
      "inputs": [
        {
          "name": "account",
          "type": "address",
          "internalType": "address"
        },
        {
          "name": "id",
          "type": "uint256",
          "internalType": "uint256"
        }
      ],
      "outputs": [
        {
          "name": "",
          "type": "uint256",
          "internalType": "uint256"
        }
      ],
      "stateMutability": "view"
    },
    {
      "type": "function",
      "name": "balanceOfBatch",
      "inputs": [
        {
          "name": "accounts",
          "type": "address[]",
          "internalType": "address[]"
        },
        {
          "name": "ids",
          "type": "uint256[]",
          "internalType": "uint256[]"
        }
      ],
      "outputs": [
        {
          "name": "",
          "type": "uint256[]",
          "internalType": "uint256[]"
        }
      ],
      "stateMutability": "view"
    },
    {
      "type": "function",
      "name": "buyShares",
      "inputs": [
        {
          "name": "companyId",
          "type": "uint256",
          "internalType": "uint256"
        },
        {
          "name": "amount",
          "type": "uint256",
          "internalType": "uint256"
        }
      ],
      "outputs": [],
      "stateMutability": "nonpayable"
    },
    {
      "type": "function",
      "name": "companies",
      "inputs": [
        {
          "name": "",
          "type": "uint256",
          "internalType": "uint256"
        }
      ],
      "outputs": [
        {
          "name": "id",
          "type": "uint256",
          "internalType": "uint256"
        },
        {
          "name": "name",
          "type": "string",
          "internalType": "string"
        },
        {
          "name": "owner",
          "type": "address",
          "internalType": "address"
        },
        {
          "name": "totalSupply",
          "type": "uint256",
          "internalType": "uint256"
        },
        {
          "name": "tokenReserve",
          "type": "uint256",
          "internalType": "uint256"
        },
        {
          "name": "shareReserve",
          "type": "uint256",
          "internalType": "uint256"
        },
        {
          "name": "ipfsMetadataUri",
          "type": "string",
          "internalType": "string"
        }
      ],
      "stateMutability": "view"
    },
    {
      "type": "function",
      "name": "destockToken",
      "inputs": [],
      "outputs": [
        {
          "name": "",
          "type": "address",
          "internalType": "contract IERC20"
        }
      ],
      "stateMutability": "view"
    },
    {
      "type": "function",
      "name": "getBuyPrice",
      "inputs": [
        {
          "name": "companyId",
          "type": "uint256",
          "internalType": "uint256"
        },
        {
          "name": "amount",
          "type": "uint256",
          "internalType": "uint256"
        }
      ],
      "outputs": [
        {
          "name": "",
          "type": "uint256",
          "internalType": "uint256"
        }
      ],
      "stateMutability": "view"
    },
    {
      "type": "function",
      "name": "getCompanyDetails",
      "inputs": [
        {
          "name": "companyId",
          "type": "uint256",
          "internalType": "uint256"
        }
      ],
      "outputs": [
        {
          "name": "",
          "type": "tuple",
          "internalType": "struct DeStock.Company",
          "components": [
            {
              "name": "id",
              "type": "uint256",
              "internalType": "uint256"
            },
            {
              "name": "name",
              "type": "string",
              "internalType": "string"
            },
            {
              "name": "owner",
              "type": "address",
              "internalType": "address"
            },
            {
              "name": "totalSupply",
              "type": "uint256",
              "internalType": "uint256"
            },
            {
              "name": "tokenReserve",
              "type": "uint256",
              "internalType": "uint256"
            },
            {
              "name": "shareReserve",
              "type": "uint256",
              "internalType": "uint256"
            },
            {
              "name": "ipfsMetadataUri",
              "type": "string",
              "internalType": "string"
            }
          ]
        }
      ],
      "stateMutability": "view"
    },
    {
      "type": "function",
      "name": "getCompanyMetadataUri",
      "inputs": [
        {
          "name": "companyId",
          "type": "uint256",
          "internalType": "uint256"
        }
      ],
      "outputs": [
        {
          "name": "",
          "type": "string",
          "internalType": "string"
        }
      ],
      "stateMutability": "view"
    },
    {
      "type": "function",
      "name": "getSellPrice",
      "inputs": [
        {
          "name": "companyId",
          "type": "uint256",
          "internalType": "uint256"
        },
        {
          "name": "amount",
          "type": "uint256",
          "internalType": "uint256"
        }
      ],
      "outputs": [
        {
          "name": "",
          "type": "uint256",
          "internalType": "uint256"
        }
      ],
      "stateMutability": "view"
    },
    {
      "type": "function",
      "name": "getSharePrice",
      "inputs": [
        {
          "name": "companyId",
          "type": "uint256",
          "internalType": "uint256"
        }
      ],
      "outputs": [
        {
          "name": "",
          "type": "uint256",
          "internalType": "uint256"
        }
      ],
      "stateMutability": "view"
    },
    {
      "type": "function",
      "name": "isApprovedForAll",
      "inputs": [
        {
          "name": "account",
          "type": "address",
          "internalType": "address"
        },
        {
          "name": "operator",
          "type": "address",
          "internalType": "address"
        }
      ],
      "outputs": [
        {
          "name": "",
          "type": "bool",
          "internalType": "bool"
        }
      ],
      "stateMutability": "view"
    },
    {
      "type": "function",
      "name": "nextCompanyId",
      "inputs": [],
      "outputs": [
        {
          "name": "",
          "type": "uint256",
          "internalType": "uint256"
        }
      ],
      "stateMutability": "view"
    },
    {
      "type": "function",
      "name": "owner",
      "inputs": [],
      "outputs": [
        {
          "name": "",
          "type": "address",
          "internalType": "address"
        }
      ],
      "stateMutability": "view"
    },
    {
      "type": "function",
      "name": "registerCompany",
      "inputs": [
        {
          "name": "name",
          "type": "string",
          "internalType": "string"
        },
        {
          "name": "totalSupply",
          "type": "uint256",
          "internalType": "uint256"
        },
        {
          "name": "initialLiquidity",
          "type": "uint256",
          "internalType": "uint256"
        },
        {
          "name": "ipfsMetadataUri",
          "type": "string",
          "internalType": "string"
        }
      ],
      "outputs": [],
      "stateMutability": "nonpayable"
    },
    {
      "type": "function",
      "name": "renounceOwnership",
      "inputs": [],
      "outputs": [],
      "stateMutability": "nonpayable"
    },
    {
      "type": "function",
      "name": "safeBatchTransferFrom",
      "inputs": [
        {
          "name": "from",
          "type": "address",
          "internalType": "address"
        },
        {
          "name": "to",
          "type": "address",
          "internalType": "address"
        },
        {
          "name": "ids",
          "type": "uint256[]",
          "internalType": "uint256[]"
        },
        {
          "name": "values",
          "type": "uint256[]",
          "internalType": "uint256[]"
        },
        {
          "name": "data",
          "type": "bytes",
          "internalType": "bytes"
        }
      ],
      "outputs": [],
      "stateMutability": "nonpayable"
    },
    {
      "type": "function",
      "name": "safeTransferFrom",
      "inputs": [
        {
          "name": "from",
          "type": "address",
          "internalType": "address"
        },
        {
          "name": "to",
          "type": "address",
          "internalType": "address"
        },
        {
          "name": "id",
          "type": "uint256",
          "internalType": "uint256"
        },
        {
          "name": "value",
          "type": "uint256",
          "internalType": "uint256"
        },
        {
          "name": "data",
          "type": "bytes",
          "internalType": "bytes"
        }
      ],
      "outputs": [],
      "stateMutability": "nonpayable"
    },
    {
      "type": "function",
      "name": "sellShares",
      "inputs": [
        {
          "name": "companyId",
          "type": "uint256",
          "internalType": "uint256"
        },
        {
          "name": "amount",
          "type": "uint256",
          "internalType": "uint256"
        }
      ],
      "outputs": [],
      "stateMutability": "nonpayable"
    },
    {
      "type": "function",
      "name": "setApprovalForAll",
      "inputs": [
        {
          "name": "operator",
          "type": "address",
          "internalType": "address"
        },
        {
          "name": "approved",
          "type": "bool",
          "internalType": "bool"
        }
      ],
      "outputs": [],
      "stateMutability": "nonpayable"
    },
    {
      "type": "function",
      "name": "supportsInterface",
      "inputs": [
        {
          "name": "interfaceId",
          "type": "bytes4",
          "internalType": "bytes4"
        }
      ],
      "outputs": [
        {
          "name": "",
          "type": "bool",
          "internalType": "bool"
        }
      ],
      "stateMutability": "view"
    },
    {
      "type": "function",
      "name": "totalCompanies",
      "inputs": [],
      "outputs": [
        {
          "name": "",
          "type": "uint256",
          "internalType": "uint256"
        }
      ],
      "stateMutability": "view"
    },
    {
      "type": "function",
      "name": "transferOwnership",
      "inputs": [
        {
          "name": "newOwner",
          "type": "address",
          "internalType": "address"
        }
      ],
      "outputs": [],
      "stateMutability": "nonpayable"
    },
    {
      "type": "function",
      "name": "uri",
      "inputs": [
        {
          "name": "",
          "type": "uint256",
          "internalType": "uint256"
        }
      ],
      "outputs": [
        {
          "name": "",
          "type": "string",
          "internalType": "string"
        }
      ],
      "stateMutability": "view"
    },
    {
      "type": "event",
      "name": "ApprovalForAll",
      "inputs": [
        {
          "name": "account",
          "type": "address",
          "indexed": true,
          "internalType": "address"
        },
        {
          "name": "operator",
          "type": "address",
          "indexed": true,
          "internalType": "address"
        },
        {
          "name": "approved",
          "type": "bool",
          "indexed": false,
          "internalType": "bool"
        }
      ],
      "anonymous": false
    },
    {
      "type": "event",
      "name": "CompanyRegistered",
      "inputs": [
        {
          "name": "companyId",
          "type": "uint256",
          "indexed": true,
          "internalType": "uint256"
        },
        {
          "name": "name",
          "type": "string",
          "indexed": false,
          "internalType": "string"
        },
        {
          "name": "owner",
          "type": "address",
          "indexed": true,
          "internalType": "address"
        },
        {
          "name": "initialShares",
          "type": "uint256",
          "indexed": false,
          "internalType": "uint256"
        },
        {
          "name": "initialLiquidity",
          "type": "uint256",
          "indexed": false,
          "internalType": "uint256"
        }
      ],
      "anonymous": false
    },
    {
      "type": "event",
      "name": "OwnershipTransferred",
      "inputs": [
        {
          "name": "previousOwner",
          "type": "address",
          "indexed": true,
          "internalType": "address"
        },
        {
          "name": "newOwner",
          "type": "address",
          "indexed": true,
          "internalType": "address"
        }
      ],
      "anonymous": false
    },
    {
      "type": "event",
      "name": "SharesPurchased",
      "inputs": [
        {
          "name": "companyId",
          "type": "uint256",
          "indexed": true,
          "internalType": "uint256"
        },
        {
          "name": "buyer",
          "type": "address",
          "indexed": true,
          "internalType": "address"
        },
        {
          "name": "amount",
          "type": "uint256",
          "indexed": false,
          "internalType": "uint256"
        },
        {
          "name": "cost",
          "type": "uint256",
          "indexed": false,
          "internalType": "uint256"
        }
      ],
      "anonymous": false
    },
    {
      "type": "event",
      "name": "SharesSold",
      "inputs": [
        {
          "name": "companyId",
          "type": "uint256",
          "indexed": true,
          "internalType": "uint256"
        },
        {
          "name": "seller",
          "type": "address",
          "indexed": true,
          "internalType": "address"
        },
        {
          "name": "amount",
          "type": "uint256",
          "indexed": false,
          "internalType": "uint256"
        },
        {
          "name": "proceeds",
          "type": "uint256",
          "indexed": false,
          "internalType": "uint256"
        }
      ],
      "anonymous": false
    },
    {
      "type": "event",
      "name": "TransferBatch",
      "inputs": [
        {
          "name": "operator",
          "type": "address",
          "indexed": true,
          "internalType": "address"
        },
        {
          "name": "from",
          "type": "address",
          "indexed": true,
          "internalType": "address"
        },
        {
          "name": "to",
          "type": "address",
          "indexed": true,
          "internalType": "address"
        },
        {
          "name": "ids",
          "type": "uint256[]",
          "indexed": false,
          "internalType": "uint256[]"
        },
        {
          "name": "values",
          "type": "uint256[]",
          "indexed": false,
          "internalType": "uint256[]"
        }
      ],
      "anonymous": false
    },
    {
      "type": "event",
      "name": "TransferSingle",
      "inputs": [
        {
          "name": "operator",
          "type": "address",
          "indexed": true,
          "internalType": "address"
        },
        {
          "name": "from",
          "type": "address",
          "indexed": true,
          "internalType": "address"
        },
        {
          "name": "to",
          "type": "address",
          "indexed": true,
          "internalType": "address"
        },
        {
          "name": "id",
          "type": "uint256",
          "indexed": false,
          "internalType": "uint256"
        },
        {
          "name": "value",
          "type": "uint256",
          "indexed": false,
          "internalType": "uint256"
        }
      ],
      "anonymous": false
    },
    {
      "type": "event",
      "name": "URI",
      "inputs": [
        {
          "name": "value",
          "type": "string",
          "indexed": false,
          "internalType": "string"
        },
        {
          "name": "id",
          "type": "uint256",
          "indexed": true,
          "internalType": "uint256"
        }
      ],
      "anonymous": false
    },
    {
      "type": "error",
      "name": "ERC1155InsufficientBalance",
      "inputs": [
        {
          "name": "sender",
          "type": "address",
          "internalType": "address"
        },
        {
          "name": "balance",
          "type": "uint256",
          "internalType": "uint256"
        },
        {
          "name": "needed",
          "type": "uint256",
          "internalType": "uint256"
        },
        {
          "name": "tokenId",
          "type": "uint256",
          "internalType": "uint256"
        }
      ]
    },
    {
      "type": "error",
      "name": "ERC1155InvalidApprover",
      "inputs": [
        {
          "name": "approver",
          "type": "address",
          "internalType": "address"
        }
      ]
    },
    {
      "type": "error",
      "name": "ERC1155InvalidArrayLength",
      "inputs": [
        {
          "name": "idsLength",
          "type": "uint256",
          "internalType": "uint256"
        },
        {
          "name": "valuesLength",
          "type": "uint256",
          "internalType": "uint256"
        }
      ]
    },
    {
      "type": "error",
      "name": "ERC1155InvalidOperator",
      "inputs": [
        {
          "name": "operator",
          "type": "address",
          "internalType": "address"
        }
      ]
    },
    {
      "type": "error",
      "name": "ERC1155InvalidReceiver",
      "inputs": [
        {
          "name": "receiver",
          "type": "address",
          "internalType": "address"
        }
      ]
    },
    {
      "type": "error",
      "name": "ERC1155InvalidSender",
      "inputs": [
        {
          "name": "sender",
          "type": "address",
          "internalType": "address"
        }
      ]
    },
    {
      "type": "error",
      "name": "ERC1155MissingApprovalForAll",
      "inputs": [
        {
          "name": "operator",
          "type": "address",
          "internalType": "address"
        },
        {
          "name": "owner",
          "type": "address",
          "internalType": "address"
        }
      ]
    },
    {
      "type": "error",
      "name": "OwnableInvalidOwner",
      "inputs": [
        {
          "name": "owner",
          "type": "address",
          "internalType": "address"
        }
      ]
    },
    {
      "type": "error",
      "name": "OwnableUnauthorizedAccount",
      "inputs": [
        {
          "name": "account",
          "type": "address",
          "internalType": "address"
        }
      ]
    },
    {
      "type": "error",
      "name": "ReentrancyGuardReentrantCall",
      "inputs": []
    }
  ],
  "bytecode": {
    "object": "0x60a060405234801561000f575f5ffd5b5060405161432638038061432683398181016040528101906100319190610247565b3360405180602001604052805f8152506100508161011360201b60201c565b505f73ffffffffffffffffffffffffffffffffffffffff168173ffffffffffffffffffffffffffffffffffffffff16036100c1575f6040517f1e4fbdf70000000000000000000000000000000000000000000000000000000081526004016100b89190610281565b60405180910390fd5b6100d08161012660201b60201c565b5060016004819055508073ffffffffffffffffffffffffffffffffffffffff1660808173ffffffffffffffffffffffffffffffffffffffff1681525050506105a6565b806002908161012291906104d7565b5050565b5f60035f9054906101000a900473ffffffffffffffffffffffffffffffffffffffff1690508160035f6101000a81548173ffffffffffffffffffffffffffffffffffffffff021916908373ffffffffffffffffffffffffffffffffffffffff1602179055508173ffffffffffffffffffffffffffffffffffffffff168173ffffffffffffffffffffffffffffffffffffffff167f8be0079c531659141344cd1fd0a4f28419497f9722a3daafe3b4186f6b6457e060405160405180910390a35050565b5f5ffd5b5f73ffffffffffffffffffffffffffffffffffffffff82169050919050565b5f610216826101ed565b9050919050565b6102268161020c565b8114610230575f5ffd5b50565b5f815190506102418161021d565b92915050565b5f6020828403121561025c5761025b6101e9565b5b5f61026984828501610233565b91505092915050565b61027b8161020c565b82525050565b5f6020820190506102945f830184610272565b92915050565b5f81519050919050565b7f4e487b71000000000000000000000000000000000000000000000000000000005f52604160045260245ffd5b7f4e487b71000000000000000000000000000000000000000000000000000000005f52602260045260245ffd5b5f600282049050600182168061031557607f821691505b602082108103610328576103276102d1565b5b50919050565b5f819050815f5260205f209050919050565b5f6020601f8301049050919050565b5f82821b905092915050565b5f6008830261038a7fffffffffffffffffffffffffffffffffffffffffffffffffffffffffffffffff8261034f565b610394868361034f565b95508019841693508086168417925050509392505050565b5f819050919050565b5f819050919050565b5f6103d86103d36103ce846103ac565b6103b5565b6103ac565b9050919050565b5f819050919050565b6103f1836103be565b6104056103fd826103df565b84845461035b565b825550505050565b5f5f905090565b61041c61040d565b6104278184846103e8565b505050565b5b8181101561044a5761043f5f82610414565b60018101905061042d565b5050565b601f82111561048f576104608161032e565b61046984610340565b81016020851015610478578190505b61048c61048485610340565b83018261042c565b50505b505050565b5f82821c905092915050565b5f6104af5f1984600802610494565b1980831691505092915050565b5f6104c783836104a0565b9150826002028217905092915050565b6104e08261029a565b67ffffffffffffffff8111156104f9576104f86102a4565b5b61050382546102fe565b61050e82828561044e565b5f60209050601f83116001811461053f575f841561052d578287015190505b61053785826104bc565b86555061059e565b601f19841661054d8661032e565b5f5b828110156105745784890151825560018201915060208501945060208101905061054f565b86831015610591578489015161058d601f8916826104a0565b8355505b6001600288020188555050505b505050505050565b608051613d536105d35f395f818161071501528181610b6401528181610dda01526111e50152613d535ff3fe608060405234801561000f575f5ffd5b5060043610610155575f3560e01c80639477d85d116100c1578063c157253d1161007a578063c157253d146103ed578063d8d3c8291461041d578063daf64aa51461043b578063e985e9c51461046b578063f242432a1461049b578063f2fde38b146104b757610155565b80639477d85d1461031b578063a22cb4651461034b578063a6229d4a14610367578063ba9a7a5614610383578063bca7d4e1146103a1578063beebc5da146103d157610155565b80632eb2c2d6116101135780632eb2c2d61461026b5780633b4cc7a31461028757806343ae8a65146102a55780634e1273f4146102c3578063715018a6146102f35780638da5cb5b146102fd57610155565b8062fdd58e1461015957806301ffc9a7146101895780630e89341c146101b95780632279a970146101e95780632813d19d14610205578063286da0451461023b575b5f5ffd5b610173600480360381019061016e919061279e565b6104d3565b60405161018091906127eb565b60405180910390f35b6101a3600480360381019061019e9190612859565b610528565b6040516101b0919061289e565b60405180910390f35b6101d360048036038101906101ce91906128b7565b610539565b6040516101e09190612952565b60405180910390f35b61020360048036038101906101fe9190612972565b6105cb565b005b61021f600480360381019061021a91906128b7565b6108a5565b60405161023297969594939291906129bf565b60405180910390f35b610255600480360381019061025091906128b7565b610a0e565b6040516102629190612952565b60405180910390f35b61028560048036038101906102809190612c2a565b610ab2565b005b61028f610b59565b60405161029c91906127eb565b60405180910390f35b6102ad610b62565b6040516102ba9190612d50565b60405180910390f35b6102dd60048036038101906102d89190612e29565b610b86565b6040516102ea9190612f56565b60405180910390f35b6102fb610c90565b005b610305610ca3565b6040516103129190612f76565b60405180910390f35b61033560048036038101906103309190612972565b610ccb565b60405161034291906127eb565b60405180910390f35b61036560048036038101906103609190612fb9565b610d35565b005b610381600480360381019061037c9190613050565b610d4b565b005b61038b611082565b60405161039891906127eb565b60405180910390f35b6103bb60048036038101906103b691906128b7565b61108e565b6040516103c891906127eb565b60405180910390f35b6103eb60048036038101906103e69190612972565b6110e7565b005b61040760048036038101906104029190612972565b611375565b60405161041491906127eb565b60405180910390f35b6104256113df565b60405161043291906127eb565b60405180910390f35b610455600480360381019061045091906128b7565b6113e5565b60405161046291906131ea565b60405180910390f35b6104856004803603810190610480919061320a565b611623565b604051610492919061289e565b60405180910390f35b6104b560048036038101906104b09190613248565b6116b1565b005b6104d160048036038101906104cc91906132db565b611758565b005b5f5f5f8381526020019081526020015f205f8473ffffffffffffffffffffffffffffffffffffffff1673ffffffffffffffffffffffffffffffffffffffff1681526020019081526020015f2054905092915050565b5f610532826117dc565b9050919050565b60606002805461054890613333565b80601f016020809104026020016040519081016040528092919081815260200182805461057490613333565b80156105bf5780601f10610596576101008083540402835291602001916105bf565b820191905f5260205f20905b8154815290600101906020018083116105a257829003601f168201915b50505050509050919050565b6105d36118bd565b5f8111610615576040517f08c379a000000000000000000000000000000000000000000000000000000000815260040161060c906133ad565b60405180910390fd5b5f60065f8481526020019081526020015f2090505f73ffffffffffffffffffffffffffffffffffffffff16816002015f9054906101000a900473ffffffffffffffffffffffffffffffffffffffff1673ffffffffffffffffffffffffffffffffffffffff16036106ba576040517f08c379a00000000000000000000000000000000000000000000000000000000081526004016106b190613415565b60405180910390fd5b816106c533856104d3565b1015610706576040517f08c379a00000000000000000000000000000000000000000000000000000000081526004016106fd906134a3565b60405180910390fd5b5f6107118484610ccb565b90507f000000000000000000000000000000000000000000000000000000000000000073ffffffffffffffffffffffffffffffffffffffff166323b872dd836002015f9054906101000a900473ffffffffffffffffffffffffffffffffffffffff1633846040518463ffffffff1660e01b8152600401610793939291906134c1565b6020604051808303815f875af11580156107af573d5f5f3e3d5ffd5b505050506040513d601f19601f820116820180604052508101906107d3919061350a565b5061081233836002015f9054906101000a900473ffffffffffffffffffffffffffffffffffffffff16868660405180602001604052805f815250611903565b80826004015f8282546108259190613562565b9250508190555082826005015f82825461083f9190613595565b925050819055503373ffffffffffffffffffffffffffffffffffffffff16847fc84ba642853b7fceb52ece6998aa2618edc77f7a182996141f2a470af347cea3858460405161088f9291906135c8565b60405180910390a350506108a1611a09565b5050565b6006602052805f5260405f205f91509050805f0154908060010180546108ca90613333565b80601f01602080910402602001604051908101604052809291908181526020018280546108f690613333565b80156109415780601f1061091857610100808354040283529160200191610941565b820191905f5260205f20905b81548152906001019060200180831161092457829003601f168201915b505050505090806002015f9054906101000a900473ffffffffffffffffffffffffffffffffffffffff169080600301549080600401549080600501549080600601805461098d90613333565b80601f01602080910402602001604051908101604052809291908181526020018280546109b990613333565b8015610a045780601f106109db57610100808354040283529160200191610a04565b820191905f5260205f20905b8154815290600101906020018083116109e757829003601f168201915b5050505050905087565b606060065f8381526020019081526020015f206006018054610a2f90613333565b80601f0160208091040260200160405190810160405280929190818152602001828054610a5b90613333565b8015610aa65780601f10610a7d57610100808354040283529160200191610aa6565b820191905f5260205f20905b815481529060010190602001808311610a8957829003601f168201915b50505050509050919050565b5f610abb611a13565b90508073ffffffffffffffffffffffffffffffffffffffff168673ffffffffffffffffffffffffffffffffffffffff1614158015610b005750610afe8682611623565b155b15610b445780866040517fe237d922000000000000000000000000000000000000000000000000000000008152600401610b3b9291906135ef565b60405180910390fd5b610b518686868686611a1a565b505050505050565b5f600554905090565b7f000000000000000000000000000000000000000000000000000000000000000081565b60608151835114610bd257815183516040517f5b059991000000000000000000000000000000000000000000000000000000008152600401610bc99291906135c8565b60405180910390fd5b5f835167ffffffffffffffff811115610bee57610bed612a3e565b5b604051908082528060200260200182016040528015610c1c5781602001602082028036833780820191505090505b5090505f5f90505b8451811015610c8557610c5b610c438287611b0e90919063ffffffff16565b610c568387611b2190919063ffffffff16565b6104d3565b828281518110610c6e57610c6d613616565b5b602002602001018181525050806001019050610c24565b508091505092915050565b610c98611b34565b610ca15f611bbb565b565b5f60035f9054906101000a900473ffffffffffffffffffffffffffffffffffffffff16905090565b5f5f60065f8581526020019081526020015f2090505f81600501548260040154610cf59190613643565b90505f848360050154610d089190613595565b90505f8183610d1791906136b1565b9050808460040154610d299190613562565b94505050505092915050565b610d47610d40611a13565b8383611c7e565b5050565b5f8411610d8d576040517f08c379a0000000000000000000000000000000000000000000000000000000008152600401610d8490613751565b60405180910390fd5b678ac7230489e80000831015610dd8576040517f08c379a0000000000000000000000000000000000000000000000000000000008152600401610dcf906137b9565b60405180910390fd5b7f000000000000000000000000000000000000000000000000000000000000000073ffffffffffffffffffffffffffffffffffffffff166323b872dd3330866040518463ffffffff1660e01b8152600401610e35939291906134c1565b6020604051808303815f875af1158015610e51573d5f5f3e3d5ffd5b505050506040513d601f19601f82011682018060405250810190610e75919061350a565b505f60055f815480929190610e89906137d7565b9190505590506040518060e0016040528082815260200188888080601f0160208091040260200160405190810160405280939291908181526020018383808284375f81840152601f19601f8201169050808301925050505050505081526020013373ffffffffffffffffffffffffffffffffffffffff16815260200186815260200185815260200186815260200184848080601f0160208091040260200160405190810160405280939291908181526020018383808284375f81840152601f19601f8201169050808301925050505050505081525060065f8381526020019081526020015f205f820151815f01556020820151816001019081610f8c91906139b5565b506040820151816002015f6101000a81548173ffffffffffffffffffffffffffffffffffffffff021916908373ffffffffffffffffffffffffffffffffffffffff160217905550606082015181600301556080820151816004015560a0820151816005015560c082015181600601908161100691906139b5565b5090505061102433828760405180602001604052805f815250611de7565b3373ffffffffffffffffffffffffffffffffffffffff16817fd18ed7372ca716f65c7aa7210c949f7c9d0fcd04e19a21e9f542d064ea641510898989896040516110719493929190613ab0565b60405180910390a350505050505050565b678ac7230489e8000081565b5f5f60065f8481526020019081526020015f2090505f8160050154036110ca57806003015481600401546110c291906136b1565b9150506110e2565b806005015481600401546110de91906136b1565b9150505b919050565b6110ef6118bd565b5f8111611131576040517f08c379a0000000000000000000000000000000000000000000000000000000008152600401611128906133ad565b60405180910390fd5b5f60065f8481526020019081526020015f2090505f73ffffffffffffffffffffffffffffffffffffffff16816002015f9054906101000a900473ffffffffffffffffffffffffffffffffffffffff1673ffffffffffffffffffffffffffffffffffffffff16036111d6576040517f08c379a00000000000000000000000000000000000000000000000000000000081526004016111cd90613415565b60405180910390fd5b5f6111e18484611375565b90507f000000000000000000000000000000000000000000000000000000000000000073ffffffffffffffffffffffffffffffffffffffff166323b872dd33846002015f9054906101000a900473ffffffffffffffffffffffffffffffffffffffff16846040518463ffffffff1660e01b8152600401611263939291906134c1565b6020604051808303815f875af115801561127f573d5f5f3e3d5ffd5b505050506040513d601f19601f820116820180604052508101906112a3919061350a565b506112e2826002015f9054906101000a900473ffffffffffffffffffffffffffffffffffffffff1633868660405180602001604052805f815250611903565b80826004015f8282546112f59190613595565b9250508190555082826005015f82825461130f9190613562565b925050819055503373ffffffffffffffffffffffffffffffffffffffff16847fce81571c08c76465bdf390ad1abe80af8c51c6c4566e3485f9395f13d5ad6328858460405161135f9291906135c8565b60405180910390a35050611371611a09565b5050565b5f5f60065f8581526020019081526020015f2090505f8160050154826004015461139f9190613643565b90505f8483600501546113b29190613562565b90505f81836113c191906136b1565b90508360040154816113d39190613562565b94505050505092915050565b60055481565b6113ed6126b2565b5f60065f8481526020019081526020015f206040518060e00160405290815f820154815260200160018201805461142390613333565b80601f016020809104026020016040519081016040528092919081815260200182805461144f90613333565b801561149a5780601f106114715761010080835404028352916020019161149a565b820191905f5260205f20905b81548152906001019060200180831161147d57829003601f168201915b50505050508152602001600282015f9054906101000a900473ffffffffffffffffffffffffffffffffffffffff1673ffffffffffffffffffffffffffffffffffffffff1673ffffffffffffffffffffffffffffffffffffffff16815260200160038201548152602001600482015481526020016005820154815260200160068201805461152690613333565b80601f016020809104026020016040519081016040528092919081815260200182805461155290613333565b801561159d5780601f106115745761010080835404028352916020019161159d565b820191905f5260205f20905b81548152906001019060200180831161158057829003601f168201915b50505050508152505090505f73ffffffffffffffffffffffffffffffffffffffff16816040015173ffffffffffffffffffffffffffffffffffffffff160361161a576040517f08c379a000000000000000000000000000000000000000000000000000000000815260040161161190613b38565b60405180910390fd5b80915050919050565b5f60015f8473ffffffffffffffffffffffffffffffffffffffff1673ffffffffffffffffffffffffffffffffffffffff1681526020019081526020015f205f8373ffffffffffffffffffffffffffffffffffffffff1673ffffffffffffffffffffffffffffffffffffffff1681526020019081526020015f205f9054906101000a900460ff16905092915050565b5f6116ba611a13565b90508073ffffffffffffffffffffffffffffffffffffffff168673ffffffffffffffffffffffffffffffffffffffff16141580156116ff57506116fd8682611623565b155b156117435780866040517fe237d92200000000000000000000000000000000000000000000000000000000815260040161173a9291906135ef565b60405180910390fd5b6117508686868686611903565b505050505050565b611760611b34565b5f73ffffffffffffffffffffffffffffffffffffffff168173ffffffffffffffffffffffffffffffffffffffff16036117d0575f6040517f1e4fbdf70000000000000000000000000000000000000000000000000000000081526004016117c79190612f76565b60405180910390fd5b6117d981611bbb565b50565b5f7fd9b67a26000000000000000000000000000000000000000000000000000000007bffffffffffffffffffffffffffffffffffffffffffffffffffffffff1916827bffffffffffffffffffffffffffffffffffffffffffffffffffffffff191614806118a657507f0e89341c000000000000000000000000000000000000000000000000000000007bffffffffffffffffffffffffffffffffffffffffffffffffffffffff1916827bffffffffffffffffffffffffffffffffffffffffffffffffffffffff1916145b806118b657506118b582611e7c565b5b9050919050565b6002600454036118f9576040517f3ee5aeb500000000000000000000000000000000000000000000000000000000815260040160405180910390fd5b6002600481905550565b5f73ffffffffffffffffffffffffffffffffffffffff168473ffffffffffffffffffffffffffffffffffffffff1603611973575f6040517f57f447ce00000000000000000000000000000000000000000000000000000000815260040161196a9190612f76565b60405180910390fd5b5f73ffffffffffffffffffffffffffffffffffffffff168573ffffffffffffffffffffffffffffffffffffffff16036119e3575f6040517f01a835140000000000000000000000000000000000000000000000000000000081526004016119da9190612f76565b60405180910390fd5b5f5f6119ef8585611ee5565b91509150611a008787848487611f15565b50505050505050565b6001600481905550565b5f33905090565b5f73ffffffffffffffffffffffffffffffffffffffff168473ffffffffffffffffffffffffffffffffffffffff1603611a8a575f6040517f57f447ce000000000000000000000000000000000000000000000000000000008152600401611a819190612f76565b60405180910390fd5b5f73ffffffffffffffffffffffffffffffffffffffff168573ffffffffffffffffffffffffffffffffffffffff1603611afa575f6040517f01a83514000000000000000000000000000000000000000000000000000000008152600401611af19190612f76565b60405180910390fd5b611b078585858585611f15565b5050505050565b5f60208202602084010151905092915050565b5f60208202602084010151905092915050565b611b3c611a13565b73ffffffffffffffffffffffffffffffffffffffff16611b5a610ca3565b73ffffffffffffffffffffffffffffffffffffffff1614611bb957611b7d611a13565b6040517f118cdaa7000000000000000000000000000000000000000000000000000000008152600401611bb09190612f76565b60405180910390fd5b565b5f60035f9054906101000a900473ffffffffffffffffffffffffffffffffffffffff1690508160035f6101000a81548173ffffffffffffffffffffffffffffffffffffffff021916908373ffffffffffffffffffffffffffffffffffffffff1602179055508173ffffffffffffffffffffffffffffffffffffffff168173ffffffffffffffffffffffffffffffffffffffff167f8be0079c531659141344cd1fd0a4f28419497f9722a3daafe3b4186f6b6457e060405160405180910390a35050565b5f73ffffffffffffffffffffffffffffffffffffffff168273ffffffffffffffffffffffffffffffffffffffff1603611cee575f6040517fced3e100000000000000000000000000000000000000000000000000000000008152600401611ce59190612f76565b60405180910390fd5b8060015f8573ffffffffffffffffffffffffffffffffffffffff1673ffffffffffffffffffffffffffffffffffffffff1681526020019081526020015f205f8473ffffffffffffffffffffffffffffffffffffffff1673ffffffffffffffffffffffffffffffffffffffff1681526020019081526020015f205f6101000a81548160ff0219169083151502179055508173ffffffffffffffffffffffffffffffffffffffff168373ffffffffffffffffffffffffffffffffffffffff167f17307eab39ab6107e8899845ad3d59bd9653f200f220920489ca2b5937696c3183604051611dda919061289e565b60405180910390a3505050565b5f73ffffffffffffffffffffffffffffffffffffffff168473ffffffffffffffffffffffffffffffffffffffff1603611e57575f6040517f57f447ce000000000000000000000000000000000000000000000000000000008152600401611e4e9190612f76565b60405180910390fd5b5f5f611e638585611ee5565b91509150611e745f87848487611f15565b505050505050565b5f7f01ffc9a7000000000000000000000000000000000000000000000000000000007bffffffffffffffffffffffffffffffffffffffffffffffffffffffff1916827bffffffffffffffffffffffffffffffffffffffffffffffffffffffff1916149050919050565b60608060405191506001825283602083015260408201905060018152826020820152604081016040529250929050565b611f2185858585611fc1565b5f73ffffffffffffffffffffffffffffffffffffffff168473ffffffffffffffffffffffffffffffffffffffff1614611fba575f611f5d611a13565b90506001845103611fa9575f611f7c5f86611b2190919063ffffffff16565b90505f611f925f86611b2190919063ffffffff16565b9050611fa2838989858589612354565b5050611fb8565b611fb7818787878787612503565b5b505b5050505050565b805182511461200b57815181516040517f5b0599910000000000000000000000000000000000000000000000000000000081526004016120029291906135c8565b60405180910390fd5b5f612014611a13565b90505f5f90505b8351811015612213575f6120388286611b2190919063ffffffff16565b90505f61204e8386611b2190919063ffffffff16565b90505f73ffffffffffffffffffffffffffffffffffffffff168873ffffffffffffffffffffffffffffffffffffffff1614612171575f5f5f8481526020019081526020015f205f8a73ffffffffffffffffffffffffffffffffffffffff1673ffffffffffffffffffffffffffffffffffffffff1681526020019081526020015f205490508181101561211d57888183856040517f03dee4c50000000000000000000000000000000000000000000000000000000081526004016121149493929190613b56565b60405180910390fd5b8181035f5f8581526020019081526020015f205f8b73ffffffffffffffffffffffffffffffffffffffff1673ffffffffffffffffffffffffffffffffffffffff1681526020019081526020015f2081905550505b5f73ffffffffffffffffffffffffffffffffffffffff168773ffffffffffffffffffffffffffffffffffffffff161461220657805f5f8481526020019081526020015f205f8973ffffffffffffffffffffffffffffffffffffffff1673ffffffffffffffffffffffffffffffffffffffff1681526020019081526020015f205f8282546121fe9190613595565b925050819055505b505080600101905061201b565b5060018351036122ce575f6122315f85611b2190919063ffffffff16565b90505f6122475f85611b2190919063ffffffff16565b90508573ffffffffffffffffffffffffffffffffffffffff168773ffffffffffffffffffffffffffffffffffffffff168473ffffffffffffffffffffffffffffffffffffffff167fc3d58168c5ae7397731d063d5bbf3d657854427343f4c083240f7aacaa2d0f6285856040516122bf9291906135c8565b60405180910390a4505061234d565b8373ffffffffffffffffffffffffffffffffffffffff168573ffffffffffffffffffffffffffffffffffffffff168273ffffffffffffffffffffffffffffffffffffffff167f4a39dc06d4c0dbc64b70af90fd698a233a518aa5d07e595d983b8c0526c8f7fb8686604051612344929190613b99565b60405180910390a45b5050505050565b5f8473ffffffffffffffffffffffffffffffffffffffff163b11156124fb578373ffffffffffffffffffffffffffffffffffffffff1663f23a6e6187878686866040518663ffffffff1660e01b81526004016123b4959493929190613c20565b6020604051808303815f875af19250505080156123ef57506040513d601f19601f820116820180604052508101906123ec9190613c8c565b60015b612470573d805f811461241d576040519150601f19603f3d011682016040523d82523d5f602084013e612422565b606091505b505f81510361246857846040517f57f447ce00000000000000000000000000000000000000000000000000000000815260040161245f9190612f76565b60405180910390fd5b805181602001fd5b63f23a6e6160e01b7bffffffffffffffffffffffffffffffffffffffffffffffffffffffff1916817bffffffffffffffffffffffffffffffffffffffffffffffffffffffff1916146124f957846040517f57f447ce0000000000000000000000000000000000000000000000000000000081526004016124f09190612f76565b60405180910390fd5b505b505050505050565b5f8473ffffffffffffffffffffffffffffffffffffffff163b11156126aa578373ffffffffffffffffffffffffffffffffffffffff1663bc197c8187878686866040518663ffffffff1660e01b8152600401612563959493929190613cb7565b6020604051808303815f875af192505050801561259e57506040513d601f19601f8201168201806040525081019061259b9190613c8c565b60015b61261f573d805f81146125cc576040519150601f19603f3d011682016040523d82523d5f602084013e6125d1565b606091505b505f81510361261757846040517f57f447ce00000000000000000000000000000000000000000000000000000000815260040161260e9190612f76565b60405180910390fd5b805181602001fd5b63bc197c8160e01b7bffffffffffffffffffffffffffffffffffffffffffffffffffffffff1916817bffffffffffffffffffffffffffffffffffffffffffffffffffffffff1916146126a857846040517f57f447ce00000000000000000000000000000000000000000000000000000000815260040161269f9190612f76565b60405180910390fd5b505b505050505050565b6040518060e001604052805f8152602001606081526020015f73ffffffffffffffffffffffffffffffffffffffff1681526020015f81526020015f81526020015f8152602001606081525090565b5f604051905090565b5f5ffd5b5f5ffd5b5f73ffffffffffffffffffffffffffffffffffffffff82169050919050565b5f61273a82612711565b9050919050565b61274a81612730565b8114612754575f5ffd5b50565b5f8135905061276581612741565b92915050565b5f819050919050565b61277d8161276b565b8114612787575f5ffd5b50565b5f8135905061279881612774565b92915050565b5f5f604083850312156127b4576127b3612709565b5b5f6127c185828601612757565b92505060206127d28582860161278a565b9150509250929050565b6127e58161276b565b82525050565b5f6020820190506127fe5f8301846127dc565b92915050565b5f7fffffffff0000000000000000000000000000000000000000000000000000000082169050919050565b61283881612804565b8114612842575f5ffd5b50565b5f813590506128538161282f565b92915050565b5f6020828403121561286e5761286d612709565b5b5f61287b84828501612845565b91505092915050565b5f8115159050919050565b61289881612884565b82525050565b5f6020820190506128b15f83018461288f565b92915050565b5f602082840312156128cc576128cb612709565b5b5f6128d98482850161278a565b91505092915050565b5f81519050919050565b5f82825260208201905092915050565b8281835e5f83830152505050565b5f601f19601f8301169050919050565b5f612924826128e2565b61292e81856128ec565b935061293e8185602086016128fc565b6129478161290a565b840191505092915050565b5f6020820190508181035f83015261296a818461291a565b905092915050565b5f5f6040838503121561298857612987612709565b5b5f6129958582860161278a565b92505060206129a68582860161278a565b9150509250929050565b6129b981612730565b82525050565b5f60e0820190506129d25f83018a6127dc565b81810360208301526129e4818961291a565b90506129f360408301886129b0565b612a0060608301876127dc565b612a0d60808301866127dc565b612a1a60a08301856127dc565b81810360c0830152612a2c818461291a565b905098975050505050505050565b5f5ffd5b7f4e487b71000000000000000000000000000000000000000000000000000000005f52604160045260245ffd5b612a748261290a565b810181811067ffffffffffffffff82111715612a9357612a92612a3e565b5b80604052505050565b5f612aa5612700565b9050612ab18282612a6b565b919050565b5f67ffffffffffffffff821115612ad057612acf612a3e565b5b602082029050602081019050919050565b5f5ffd5b5f612af7612af284612ab6565b612a9c565b90508083825260208201905060208402830185811115612b1a57612b19612ae1565b5b835b81811015612b435780612b2f888261278a565b845260208401935050602081019050612b1c565b5050509392505050565b5f82601f830112612b6157612b60612a3a565b5b8135612b71848260208601612ae5565b91505092915050565b5f5ffd5b5f67ffffffffffffffff821115612b9857612b97612a3e565b5b612ba18261290a565b9050602081019050919050565b828183375f83830152505050565b5f612bce612bc984612b7e565b612a9c565b905082815260208101848484011115612bea57612be9612b7a565b5b612bf5848285612bae565b509392505050565b5f82601f830112612c1157612c10612a3a565b5b8135612c21848260208601612bbc565b91505092915050565b5f5f5f5f5f60a08688031215612c4357612c42612709565b5b5f612c5088828901612757565b9550506020612c6188828901612757565b945050604086013567ffffffffffffffff811115612c8257612c8161270d565b5b612c8e88828901612b4d565b935050606086013567ffffffffffffffff811115612caf57612cae61270d565b5b612cbb88828901612b4d565b925050608086013567ffffffffffffffff811115612cdc57612cdb61270d565b5b612ce888828901612bfd565b9150509295509295909350565b5f819050919050565b5f612d18612d13612d0e84612711565b612cf5565b612711565b9050919050565b5f612d2982612cfe565b9050919050565b5f612d3a82612d1f565b9050919050565b612d4a81612d30565b82525050565b5f602082019050612d635f830184612d41565b92915050565b5f67ffffffffffffffff821115612d8357612d82612a3e565b5b602082029050602081019050919050565b5f612da6612da184612d69565b612a9c565b90508083825260208201905060208402830185811115612dc957612dc8612ae1565b5b835b81811015612df25780612dde8882612757565b845260208401935050602081019050612dcb565b5050509392505050565b5f82601f830112612e1057612e0f612a3a565b5b8135612e20848260208601612d94565b91505092915050565b5f5f60408385031215612e3f57612e3e612709565b5b5f83013567ffffffffffffffff811115612e5c57612e5b61270d565b5b612e6885828601612dfc565b925050602083013567ffffffffffffffff811115612e8957612e8861270d565b5b612e9585828601612b4d565b9150509250929050565b5f81519050919050565b5f82825260208201905092915050565b5f819050602082019050919050565b612ed18161276b565b82525050565b5f612ee28383612ec8565b60208301905092915050565b5f602082019050919050565b5f612f0482612e9f565b612f0e8185612ea9565b9350612f1983612eb9565b805f5b83811015612f49578151612f308882612ed7565b9750612f3b83612eee565b925050600181019050612f1c565b5085935050505092915050565b5f6020820190508181035f830152612f6e8184612efa565b905092915050565b5f602082019050612f895f8301846129b0565b92915050565b612f9881612884565b8114612fa2575f5ffd5b50565b5f81359050612fb381612f8f565b92915050565b5f5f60408385031215612fcf57612fce612709565b5b5f612fdc85828601612757565b9250506020612fed85828601612fa5565b9150509250929050565b5f5ffd5b5f5f83601f8401126130105761300f612a3a565b5b8235905067ffffffffffffffff81111561302d5761302c612ff7565b5b60208301915083600182028301111561304957613048612ae1565b5b9250929050565b5f5f5f5f5f5f6080878903121561306a57613069612709565b5b5f87013567ffffffffffffffff8111156130875761308661270d565b5b61309389828a01612ffb565b965096505060206130a689828a0161278a565b94505060406130b789828a0161278a565b935050606087013567ffffffffffffffff8111156130d8576130d761270d565b5b6130e489828a01612ffb565b92509250509295509295509295565b5f82825260208201905092915050565b5f61310d826128e2565b61311781856130f3565b93506131278185602086016128fc565b6131308161290a565b840191505092915050565b61314481612730565b82525050565b5f60e083015f83015161315f5f860182612ec8565b50602083015184820360208601526131778282613103565b915050604083015161318c604086018261313b565b50606083015161319f6060860182612ec8565b5060808301516131b26080860182612ec8565b5060a08301516131c560a0860182612ec8565b5060c083015184820360c08601526131dd8282613103565b9150508091505092915050565b5f6020820190508181035f830152613202818461314a565b905092915050565b5f5f604083850312156132205761321f612709565b5b5f61322d85828601612757565b925050602061323e85828601612757565b9150509250929050565b5f5f5f5f5f60a0868803121561326157613260612709565b5b5f61326e88828901612757565b955050602061327f88828901612757565b94505060406132908882890161278a565b93505060606132a18882890161278a565b925050608086013567ffffffffffffffff8111156132c2576132c161270d565b5b6132ce88828901612bfd565b9150509295509295909350565b5f602082840312156132f0576132ef612709565b5b5f6132fd84828501612757565b91505092915050565b7f4e487b71000000000000000000000000000000000000000000000000000000005f52602260045260245ffd5b5f600282049050600182168061334a57607f821691505b60208210810361335d5761335c613306565b5b50919050565b7f446553746f636b3a20616d6f756e74206d757374206265203e203000000000005f82015250565b5f613397601b836128ec565b91506133a282613363565b602082019050919050565b5f6020820190508181035f8301526133c48161338b565b9050919050565b7f446553746f636b3a20636f6d70616e7920646f6573206e6f74206578697374005f82015250565b5f6133ff601f836128ec565b915061340a826133cb565b602082019050919050565b5f6020820190508181035f83015261342c816133f3565b9050919050565b7f446553746f636b3a20696e73756666696369656e742073686172652062616c615f8201527f6e63650000000000000000000000000000000000000000000000000000000000602082015250565b5f61348d6023836128ec565b915061349882613433565b604082019050919050565b5f6020820190508181035f8301526134ba81613481565b9050919050565b5f6060820190506134d45f8301866129b0565b6134e160208301856129b0565b6134ee60408301846127dc565b949350505050565b5f8151905061350481612f8f565b92915050565b5f6020828403121561351f5761351e612709565b5b5f61352c848285016134f6565b91505092915050565b7f4e487b71000000000000000000000000000000000000000000000000000000005f52601160045260245ffd5b5f61356c8261276b565b91506135778361276b565b925082820390508181111561358f5761358e613535565b5b92915050565b5f61359f8261276b565b91506135aa8361276b565b92508282019050808211156135c2576135c1613535565b5b92915050565b5f6040820190506135db5f8301856127dc565b6135e860208301846127dc565b9392505050565b5f6040820190506136025f8301856129b0565b61360f60208301846129b0565b9392505050565b7f4e487b71000000000000000000000000000000000000000000000000000000005f52603260045260245ffd5b5f61364d8261276b565b91506136588361276b565b92508282026136668161276b565b9150828204841483151761367d5761367c613535565b5b5092915050565b7f4e487b71000000000000000000000000000000000000000000000000000000005f52601260045260245ffd5b5f6136bb8261276b565b91506136c68361276b565b9250826136d6576136d5613684565b5b828204905092915050565b7f446553746f636b3a20746f74616c20737570706c79206d757374206265203e205f8201527f3000000000000000000000000000000000000000000000000000000000000000602082015250565b5f61373b6021836128ec565b9150613746826136e1565b604082019050919050565b5f6020820190508181035f8301526137688161372f565b9050919050565b7f446553746f636b3a20696e73756666696369656e74206c6971756964697479005f82015250565b5f6137a3601f836128ec565b91506137ae8261376f565b602082019050919050565b5f6020820190508181035f8301526137d081613797565b9050919050565b5f6137e18261276b565b91507fffffffffffffffffffffffffffffffffffffffffffffffffffffffffffffffff820361381357613812613535565b5b600182019050919050565b5f819050815f5260205f209050919050565b5f6020601f8301049050919050565b5f82821b905092915050565b5f6008830261387a7fffffffffffffffffffffffffffffffffffffffffffffffffffffffffffffffff8261383f565b613884868361383f565b95508019841693508086168417925050509392505050565b5f6138b66138b16138ac8461276b565b612cf5565b61276b565b9050919050565b5f819050919050565b6138cf8361389c565b6138e36138db826138bd565b84845461384b565b825550505050565b5f5f905090565b6138fa6138eb565b6139058184846138c6565b505050565b5b818110156139285761391d5f826138f2565b60018101905061390b565b5050565b601f82111561396d5761393e8161381e565b61394784613830565b81016020851015613956578190505b61396a61396285613830565b83018261390a565b50505b505050565b5f82821c905092915050565b5f61398d5f1984600802613972565b1980831691505092915050565b5f6139a5838361397e565b9150826002028217905092915050565b6139be826128e2565b67ffffffffffffffff8111156139d7576139d6612a3e565b5b6139e18254613333565b6139ec82828561392c565b5f60209050601f831160018114613a1d575f8415613a0b578287015190505b613a15858261399a565b865550613a7c565b601f198416613a2b8661381e565b5f5b82811015613a5257848901518255600182019150602085019450602081019050613a2d565b86831015613a6f5784890151613a6b601f89168261397e565b8355505b6001600288020188555050505b505050505050565b5f613a8f83856128ec565b9350613a9c838584612bae565b613aa58361290a565b840190509392505050565b5f6060820190508181035f830152613ac9818688613a84565b9050613ad860208301856127dc565b613ae560408301846127dc565b95945050505050565b7f436f6d70616e7920646f6573206e6f74206578697374000000000000000000005f82015250565b5f613b226016836128ec565b9150613b2d82613aee565b602082019050919050565b5f6020820190508181035f830152613b4f81613b16565b9050919050565b5f608082019050613b695f8301876129b0565b613b7660208301866127dc565b613b8360408301856127dc565b613b9060608301846127dc565b95945050505050565b5f6040820190508181035f830152613bb18185612efa565b90508181036020830152613bc58184612efa565b90509392505050565b5f81519050919050565b5f82825260208201905092915050565b5f613bf282613bce565b613bfc8185613bd8565b9350613c0c8185602086016128fc565b613c158161290a565b840191505092915050565b5f60a082019050613c335f8301886129b0565b613c4060208301876129b0565b613c4d60408301866127dc565b613c5a60608301856127dc565b8181036080830152613c6c8184613be8565b90509695505050505050565b5f81519050613c868161282f565b92915050565b5f60208284031215613ca157613ca0612709565b5b5f613cae84828501613c78565b91505092915050565b5f60a082019050613cca5f8301886129b0565b613cd760208301876129b0565b8181036040830152613ce98186612efa565b90508181036060830152613cfd8185612efa565b90508181036080830152613d118184613be8565b9050969550505050505056fea264697066735822122098ad9b562ea3c39a198d785eb60c9e561a26d2e5850800d72be67a5a5f70495264736f6c634300081e0033",
    "linkReferences": {}
  },
  "methodIdentifiers": {
    "MINIMUM_LIQUIDITY()": "ba9a7a56",
    "balanceOf(address,uint256)": "00fdd58e",
    "balanceOfBatch(address[],uint256[])": "4e1273f4",
    "buyShares(uint256,uint256)": "beebc5da",
    "companies(uint256)": "2813d19d",
    "destockToken()": "43ae8a65",
    "getBuyPrice(uint256,uint256)": "c157253d",
    "getCompanyDetails(uint256)": "daf64aa5",
    "getCompanyMetadataUri(uint256)": "286da045",
    "getSellPrice(uint256,uint256)": "9477d85d",
    "getSharePrice(uint256)": "bca7d4e1",
    "isApprovedForAll(address,address)": "e985e9c5",
    "nextCompanyId()": "d8d3c829",
    "owner()": "8da5cb5b",
    "registerCompany(string,uint256,uint256,string)": "a6229d4a",
    "renounceOwnership()": "715018a6",
    "safeBatchTransferFrom(address,address,uint256[],uint256[],bytes)": "2eb2c2d6",
    "safeTransferFrom(address,address,uint256,uint256,bytes)": "f242432a",
    "sellShares(uint256,uint256)": "2279a970",
    "setApprovalForAll(address,bool)": "a22cb465",
    "supportsInterface(bytes4)": "01ffc9a7",
    "totalCompanies()": "3b4cc7a3",
    "transferOwnership(address)": "f2fde38b",
    "uri(uint256)": "0e89341c"
  },
  "id": 43
}