{"abi":[{"type":"constructor","inputs":[{"name":"_destockTokenAddress","type":"address","internalType":"address"}],"stateMutability":"nonpayable"},{"type":"function","name":"MINIMUM_LIQUIDITY","inputs":[],"outputs":[{"name":"","type":"uint256","internalType":"uint256"}],"stateMutability":"view"},{"type":"function","name":"balanceOf","inputs":[{"name":"account","type":"address","internalType":"address"},{"name":"id","type":"uint256","internalType":"uint256"}],"outputs":[{"name":"","type":"uint256","internalType":"uint256"}],"stateMutability":"view"},{"type":"function","name":"balanceOfBatch","inputs":[{"name":"accounts","type":"address[]","internalType":"address[]"},{"name":"ids","type":"uint256[]","internalType":"uint256[]"}],"outputs":[{"name":"","type":"uint256[]","internalType":"uint256[]"}],"stateMutability":"view"},{"type":"function","name":"buyShares","inputs":[{"name":"companyId","type":"uint256","internalType":"uint256"},{"name":"amount","type":"uint256","internalType":"uint256"}],"outputs":[],"stateMutability":"nonpayable"},{"type":"function","name":"companies","inputs":[{"name":"","type":"uint256","internalType":"uint256"}],"outputs":[{"name":"id","type":"uint256","internalType":"uint256"},{"name":"name","type":"string","internalType":"string"},{"name":"owner","type":"address","internalType":"address"},{"name":"totalSupply","type":"uint256","internalType":"uint256"},{"name":"tokenReserve","type":"uint256","internalType":"uint256"},{"name":"shareReserve","type":"uint256","internalType":"uint256"}],"stateMutability":"view"},{"type":"function","name":"destockToken","inputs":[],"outputs":[{"name":"","type":"address","internalType":"contract IERC20"}],"stateMutability":"view"},{"type":"function","name":"getBuyPrice","inputs":[{"name":"companyId","type":"uint256","internalType":"uint256"},{"name":"amount","type":"uint256","internalType":"uint256"}],"outputs":[{"name":"","type":"uint256","internalType":"uint256"}],"stateMutability":"view"},{"type":"function","name":"getCompanyDetails","inputs":[{"name":"companyId","type":"uint256","internalType":"uint256"}],"outputs":[{"name":"","type":"tuple","internalType":"struct DeStock.Company","components":[{"name":"id","type":"uint256","internalType":"uint256"},{"name":"name","type":"string","internalType":"string"},{"name":"owner","type":"address","internalType":"address"},{"name":"totalSupply","type":"uint256","internalType":"uint256"},{"name":"tokenReserve","type":"uint256","internalType":"uint256"},{"name":"shareReserve","type":"uint256","internalType":"uint256"}]}],"stateMutability":"view"},{"type":"function","name":"getSellPrice","inputs":[{"name":"companyId","type":"uint256","internalType":"uint256"},{"name":"amount","type":"uint256","internalType":"uint256"}],"outputs":[{"name":"","type":"uint256","internalType":"uint256"}],"stateMutability":"view"},{"type":"function","name":"getSharePrice","inputs":[{"name":"companyId","type":"uint256","internalType":"uint256"}],"outputs":[{"name":"","type":"uint256","internalType":"uint256"}],"stateMutability":"view"},{"type":"function","name":"isApprovedForAll","inputs":[{"name":"account","type":"address","internalType":"address"},{"name":"operator","type":"address","internalType":"address"}],"outputs":[{"name":"","type":"bool","internalType":"bool"}],"stateMutability":"view"},{"type":"function","name":"nextCompanyId","inputs":[],"outputs":[{"name":"","type":"uint256","internalType":"uint256"}],"stateMutability":"view"},{"type":"function","name":"owner","inputs":[],"outputs":[{"name":"","type":"address","internalType":"address"}],"stateMutability":"view"},{"type":"function","name":"registerCompany","inputs":[{"name":"name","type":"string","internalType":"string"},{"name":"totalSupply","type":"uint256","internalType":"uint256"},{"name":"initialLiquidity","type":"uint256","internalType":"uint256"}],"outputs":[],"stateMutability":"nonpayable"},{"type":"function","name":"renounceOwnership","inputs":[],"outputs":[],"stateMutability":"nonpayable"},{"type":"function","name":"safeBatchTransferFrom","inputs":[{"name":"from","type":"address","internalType":"address"},{"name":"to","type":"address","internalType":"address"},{"name":"ids","type":"uint256[]","internalType":"uint256[]"},{"name":"values","type":"uint256[]","internalType":"uint256[]"},{"name":"data","type":"bytes","internalType":"bytes"}],"outputs":[],"stateMutability":"nonpayable"},{"type":"function","name":"safeTransferFrom","inputs":[{"name":"from","type":"address","internalType":"address"},{"name":"to","type":"address","internalType":"address"},{"name":"id","type":"uint256","internalType":"uint256"},{"name":"value","type":"uint256","internalType":"uint256"},{"name":"data","type":"bytes","internalType":"bytes"}],"outputs":[],"stateMutability":"nonpayable"},{"type":"function","name":"sellShares","inputs":[{"name":"companyId","type":"uint256","internalType":"uint256"},{"name":"amount","type":"uint256","internalType":"uint256"}],"outputs":[],"stateMutability":"nonpayable"},{"type":"function","name":"setApprovalForAll","inputs":[{"name":"operator","type":"address","internalType":"address"},{"name":"approved","type":"bool","internalType":"bool"}],"outputs":[],"stateMutability":"nonpayable"},{"type":"function","name":"supportsInterface","inputs":[{"name":"interfaceId","type":"bytes4","internalType":"bytes4"}],"outputs":[{"name":"","type":"bool","internalType":"bool"}],"stateMutability":"view"},{"type":"function","name":"totalCompanies","inputs":[],"outputs":[{"name":"","type":"uint256","internalType":"uint256"}],"stateMutability":"view"},{"type":"function","name":"transferOwnership","inputs":[{"name":"newOwner","type":"address","internalType":"address"}],"outputs":[],"stateMutability":"nonpayable"},{"type":"function","name":"uri","inputs":[{"name":"","type":"uint256","internalType":"uint256"}],"outputs":[{"name":"","type":"string","internalType":"string"}],"stateMutability":"view"},{"type":"event","name":"ApprovalForAll","inputs":[{"name":"account","type":"address","indexed":true,"internalType":"address"},{"name":"operator","type":"address","indexed":true,"internalType":"address"},{"name":"approved","type":"bool","indexed":false,"internalType":"bool"}],"anonymous":false},{"type":"event","name":"CompanyRegistered","inputs":[{"name":"companyId","type":"uint256","indexed":true,"internalType":"uint256"},{"name":"name","type":"string","indexed":false,"internalType":"string"},{"name":"owner","type":"address","indexed":true,"internalType":"address"},{"name":"initialShares","type":"uint256","indexed":false,"internalType":"uint256"},{"name":"initialLiquidity","type":"uint256","indexed":false,"internalType":"uint256"}],"anonymous":false},{"type":"event","name":"OwnershipTransferred","inputs":[{"name":"previousOwner","type":"address","indexed":true,"internalType":"address"},{"name":"newOwner","type":"address","indexed":true,"internalType":"address"}],"anonymous":false},{"type":"event","name":"SharesPurchased","inputs":[{"name":"companyId","type":"uint256","indexed":true,"internalType":"uint256"},{"name":"buyer","type":"address","indexed":true,"internalType":"address"},{"name":"amount","type":"uint256","indexed":false,"internalType":"uint256"},{"name":"cost","type":"uint256","indexed":false,"internalType":"uint256"}],"anonymous":false},{"type":"event","name":"SharesSold","inputs":[{"name":"companyId","type":"uint256","indexed":true,"internalType":"uint256"},{"name":"seller","type":"address","indexed":true,"internalType":"address"},{"name":"amount","type":"uint256","indexed":false,"internalType":"uint256"},{"name":"proceeds","type":"uint256","indexed":false,"internalType":"uint256"}],"anonymous":false},{"type":"event","name":"TransferBatch","inputs":[{"name":"operator","type":"address","indexed":true,"internalType":"address"},{"name":"from","type":"address","indexed":true,"internalType":"address"},{"name":"to","type":"address","indexed":true,"internalType":"address"},{"name":"ids","type":"uint256[]","indexed":false,"internalType":"uint256[]"},{"name":"values","type":"uint256[]","indexed":false,"internalType":"uint256[]"}],"anonymous":false},{"type":"event","name":"TransferSingle","inputs":[{"name":"operator","type":"address","indexed":true,"internalType":"address"},{"name":"from","type":"address","indexed":true,"internalType":"address"},{"name":"to","type":"address","indexed":true,"internalType":"address"},{"name":"id","type":"uint256","indexed":false,"internalType":"uint256"},{"name":"value","type":"uint256","indexed":false,"internalType":"uint256"}],"anonymous":false},{"type":"event","name":"URI","inputs":[{"name":"value","type":"string","indexed":false,"internalType":"string"},{"name":"id","type":"uint256","indexed":true,"internalType":"uint256"}],"anonymous":false},{"type":"error","name":"ERC1155InsufficientBalance","inputs":[{"name":"sender","type":"address","internalType":"address"},{"name":"balance","type":"uint256","internalType":"uint256"},{"name":"needed","type":"uint256","internalType":"uint256"},{"name":"tokenId","type":"uint256","internalType":"uint256"}]},{"type":"error","name":"ERC1155InvalidApprover","inputs":[{"name":"approver","type":"address","internalType":"address"}]},{"type":"error","name":"ERC1155InvalidArrayLength","inputs":[{"name":"idsLength","type":"uint256","internalType":"uint256"},{"name":"valuesLength","type":"uint256","internalType":"uint256"}]},{"type":"error","name":"ERC1155InvalidOperator","inputs":[{"name":"operator","type":"address","internalType":"address"}]},{"type":"error","name":"ERC1155InvalidReceiver","inputs":[{"name":"receiver","type":"address","internalType":"address"}]},{"type":"error","name":"ERC1155InvalidSender","inputs":[{"name":"sender","type":"address","internalType":"address"}]},{"type":"error","name":"ERC1155MissingApprovalForAll","inputs":[{"name":"operator","type":"address","internalType":"address"},{"name":"owner","type":"address","internalType":"address"}]},{"type":"error","name":"OwnableInvalidOwner","inputs":[{"name":"owner","type":"address","internalType":"address"}]},{"type":"error","name":"OwnableUnauthorizedAccount","inputs":[{"name":"account","type":"address","internalType":"address"}]}],"bytecode":{"object":"0x60a060405234801561000f575f5ffd5b50604051613fe9380380613fe98339818101604052810190610031919061023f565b3360405180602001604052805f8152506100508161010b60201b60201c565b505f73ffffffffffffffffffffffffffffffffffffffff168173ffffffffffffffffffffffffffffffffffffffff16036100c1575f6040517f1e4fbdf70000000000000000000000000000000000000000000000000000000081526004016100b89190610279565b60405180910390fd5b6100d08161011e60201b60201c565b508073ffffffffffffffffffffffffffffffffffffffff1660808173ffffffffffffffffffffffffffffffffffffffff16815250505061059e565b806002908161011a91906104cf565b5050565b5f60035f9054906101000a900473ffffffffffffffffffffffffffffffffffffffff1690508160035f6101000a81548173ffffffffffffffffffffffffffffffffffffffff021916908373ffffffffffffffffffffffffffffffffffffffff1602179055508173ffffffffffffffffffffffffffffffffffffffff168173ffffffffffffffffffffffffffffffffffffffff167f8be0079c531659141344cd1fd0a4f28419497f9722a3daafe3b4186f6b6457e060405160405180910390a35050565b5f5ffd5b5f73ffffffffffffffffffffffffffffffffffffffff82169050919050565b5f61020e826101e5565b9050919050565b61021e81610204565b8114610228575f5ffd5b50565b5f8151905061023981610215565b92915050565b5f60208284031215610254576102536101e1565b5b5f6102618482850161022b565b91505092915050565b61027381610204565b82525050565b5f60208201905061028c5f83018461026a565b92915050565b5f81519050919050565b7f4e487b71000000000000000000000000000000000000000000000000000000005f52604160045260245ffd5b7f4e487b71000000000000000000000000000000000000000000000000000000005f52602260045260245ffd5b5f600282049050600182168061030d57607f821691505b6020821081036103205761031f6102c9565b5b50919050565b5f819050815f5260205f209050919050565b5f6020601f8301049050919050565b5f82821b905092915050565b5f600883026103827fffffffffffffffffffffffffffffffffffffffffffffffffffffffffffffffff82610347565b61038c8683610347565b95508019841693508086168417925050509392505050565b5f819050919050565b5f819050919050565b5f6103d06103cb6103c6846103a4565b6103ad565b6103a4565b9050919050565b5f819050919050565b6103e9836103b6565b6103fd6103f5826103d7565b848454610353565b825550505050565b5f5f905090565b610414610405565b61041f8184846103e0565b505050565b5b81811015610442576104375f8261040c565b600181019050610425565b5050565b601f8211156104875761045881610326565b61046184610338565b81016020851015610470578190505b61048461047c85610338565b830182610424565b50505b505050565b5f82821c905092915050565b5f6104a75f198460080261048c565b1980831691505092915050565b5f6104bf8383610498565b9150826002028217905092915050565b6104d882610292565b67ffffffffffffffff8111156104f1576104f061029c565b5b6104fb82546102f6565b610506828285610446565b5f60209050601f831160018114610537575f8415610525578287015190505b61052f85826104b4565b865550610596565b601f19841661054586610326565b5f5b8281101561056c57848901518255600182019150602085019450602081019050610547565b868310156105895784890151610585601f891682610498565b8355505b6001600288020188555050505b505050505050565b608051613a1e6105cb5f395f81816106d1015281816109e801528181610c5e01526110000152613a1e5ff3fe608060405234801561000f575f5ffd5b506004361061014a575f3560e01c80639477d85d116100c1578063c157253d1161007a578063c157253d146103b1578063d8d3c829146103e1578063daf64aa5146103ff578063e985e9c51461042f578063f242432a1461045f578063f2fde38b1461047b5761014a565b80639477d85d146102df578063a22cb4651461030f578063ba8c85ae1461032b578063ba9a7a5614610347578063bca7d4e114610365578063beebc5da146103955761014a565b80632eb2c2d6116101135780632eb2c2d61461022f5780633b4cc7a31461024b57806343ae8a65146102695780634e1273f414610287578063715018a6146102b75780638da5cb5b146102c15761014a565b8062fdd58e1461014e57806301ffc9a71461017e5780630e89341c146101ae5780632279a970146101de5780632813d19d146101fa575b5f5ffd5b610168600480360381019061016391906124ca565b610497565b6040516101759190612517565b60405180910390f35b61019860048036038101906101939190612585565b6104ec565b6040516101a591906125ca565b60405180910390f35b6101c860048036038101906101c391906125e3565b6104fd565b6040516101d5919061267e565b60405180910390f35b6101f860048036038101906101f3919061269e565b61058f565b005b610214600480360381019061020f91906125e3565b610859565b604051610226969594939291906126eb565b60405180910390f35b61024960048036038101906102449190612941565b610936565b005b6102536109dd565b6040516102609190612517565b60405180910390f35b6102716109e6565b60405161027e9190612a67565b60405180910390f35b6102a1600480360381019061029c9190612b40565b610a0a565b6040516102ae9190612c6d565b60405180910390f35b6102bf610b14565b005b6102c9610b27565b6040516102d69190612c8d565b60405180910390f35b6102f960048036038101906102f4919061269e565b610b4f565b6040516103069190612517565b60405180910390f35b61032960048036038101906103249190612cd0565b610bb9565b005b61034560048036038101906103409190612d67565b610bcf565b005b61034f610ea5565b60405161035c9190612517565b60405180910390f35b61037f600480360381019061037a91906125e3565b610eb1565b60405161038c9190612517565b60405180910390f35b6103af60048036038101906103aa919061269e565b610f0a565b005b6103cb60048036038101906103c6919061269e565b611188565b6040516103d89190612517565b60405180910390f35b6103e96111f2565b6040516103f69190612517565b60405180910390f35b610419600480360381019061041491906125e3565b6111f8565b6040516104269190612eb5565b60405180910390f35b61044960048036038101906104449190612ed5565b6113a6565b60405161045691906125ca565b60405180910390f35b61047960048036038101906104749190612f13565b611434565b005b61049560048036038101906104909190612fa6565b6114db565b005b5f5f5f8381526020019081526020015f205f8473ffffffffffffffffffffffffffffffffffffffff1673ffffffffffffffffffffffffffffffffffffffff1681526020019081526020015f2054905092915050565b5f6104f68261155f565b9050919050565b60606002805461050c90612ffe565b80601f016020809104026020016040519081016040528092919081815260200182805461053890612ffe565b80156105835780601f1061055a57610100808354040283529160200191610583565b820191905f5260205f20905b81548152906001019060200180831161056657829003601f168201915b50505050509050919050565b5f81116105d1576040517f08c379a00000000000000000000000000000000000000000000000000000000081526004016105c890613078565b60405180910390fd5b5f60055f8481526020019081526020015f2090505f73ffffffffffffffffffffffffffffffffffffffff16816002015f9054906101000a900473ffffffffffffffffffffffffffffffffffffffff1673ffffffffffffffffffffffffffffffffffffffff1603610676576040517f08c379a000000000000000000000000000000000000000000000000000000000815260040161066d906130e0565b60405180910390fd5b816106813385610497565b10156106c2576040517f08c379a00000000000000000000000000000000000000000000000000000000081526004016106b99061316e565b60405180910390fd5b5f6106cd8484610b4f565b90507f000000000000000000000000000000000000000000000000000000000000000073ffffffffffffffffffffffffffffffffffffffff166323b872dd836002015f9054906101000a900473ffffffffffffffffffffffffffffffffffffffff1633846040518463ffffffff1660e01b815260040161074f9392919061318c565b6020604051808303815f875af115801561076b573d5f5f3e3d5ffd5b505050506040513d601f19601f8201168201806040525081019061078f91906131d5565b506107ce33836002015f9054906101000a900473ffffffffffffffffffffffffffffffffffffffff16868660405180602001604052805f815250611640565b80826004015f8282546107e1919061322d565b9250508190555082826005015f8282546107fb9190613260565b925050819055503373ffffffffffffffffffffffffffffffffffffffff16847fc84ba642853b7fceb52ece6998aa2618edc77f7a182996141f2a470af347cea3858460405161084b929190613293565b60405180910390a350505050565b6005602052805f5260405f205f91509050805f01549080600101805461087e90612ffe565b80601f01602080910402602001604051908101604052809291908181526020018280546108aa90612ffe565b80156108f55780601f106108cc576101008083540402835291602001916108f5565b820191905f5260205f20905b8154815290600101906020018083116108d857829003601f168201915b505050505090806002015f9054906101000a900473ffffffffffffffffffffffffffffffffffffffff16908060030154908060040154908060050154905086565b5f61093f611746565b90508073ffffffffffffffffffffffffffffffffffffffff168673ffffffffffffffffffffffffffffffffffffffff1614158015610984575061098286826113a6565b155b156109c85780866040517fe237d9220000000000000000000000000000000000000000000000000000000081526004016109bf9291906132ba565b60405180910390fd5b6109d5868686868661174d565b505050505050565b5f600454905090565b7f000000000000000000000000000000000000000000000000000000000000000081565b60608151835114610a5657815183516040517f5b059991000000000000000000000000000000000000000000000000000000008152600401610a4d929190613293565b60405180910390fd5b5f835167ffffffffffffffff811115610a7257610a71612755565b5b604051908082528060200260200182016040528015610aa05781602001602082028036833780820191505090505b5090505f5f90505b8451811015610b0957610adf610ac7828761184190919063ffffffff16565b610ada838761185490919063ffffffff16565b610497565b828281518110610af257610af16132e1565b5b602002602001018181525050806001019050610aa8565b508091505092915050565b610b1c611867565b610b255f6118ee565b565b5f60035f9054906101000a900473ffffffffffffffffffffffffffffffffffffffff16905090565b5f5f60055f8581526020019081526020015f2090505f81600501548260040154610b79919061330e565b90505f848360050154610b8c9190613260565b90505f8183610b9b919061337c565b9050808460040154610bad919061322d565b94505050505092915050565b610bcb610bc4611746565b83836119b1565b5050565b5f8211610c11576040517f08c379a0000000000000000000000000000000000000000000000000000000008152600401610c089061341c565b60405180910390fd5b678ac7230489e80000811015610c5c576040517f08c379a0000000000000000000000000000000000000000000000000000000008152600401610c5390613484565b60405180910390fd5b7f000000000000000000000000000000000000000000000000000000000000000073ffffffffffffffffffffffffffffffffffffffff166323b872dd3330846040518463ffffffff1660e01b8152600401610cb99392919061318c565b6020604051808303815f875af1158015610cd5573d5f5f3e3d5ffd5b505050506040513d601f19601f82011682018060405250810190610cf991906131d5565b505f60045f815480929190610d0d906134a2565b9190505590506040518060c0016040528082815260200186868080601f0160208091040260200160405190810160405280939291908181526020018383808284375f81840152601f19601f8201169050808301925050505050505081526020013373ffffffffffffffffffffffffffffffffffffffff1681526020018481526020018381526020018481525060055f8381526020019081526020015f205f820151815f01556020820151816001019081610dc79190613680565b506040820151816002015f6101000a81548173ffffffffffffffffffffffffffffffffffffffff021916908373ffffffffffffffffffffffffffffffffffffffff160217905550606082015181600301556080820151816004015560a08201518160050155905050610e4933828560405180602001604052805f815250611b1a565b3373ffffffffffffffffffffffffffffffffffffffff16817fd18ed7372ca716f65c7aa7210c949f7c9d0fcd04e19a21e9f542d064ea64151087878787604051610e96949392919061377b565b60405180910390a35050505050565b678ac7230489e8000081565b5f5f60055f8481526020019081526020015f2090505f816005015403610eed5780600301548160040154610ee5919061337c565b915050610f05565b80600501548160040154610f01919061337c565b9150505b919050565b5f8111610f4c576040517f08c379a0000000000000000000000000000000000000000000000000000000008152600401610f4390613078565b60405180910390fd5b5f60055f8481526020019081526020015f2090505f73ffffffffffffffffffffffffffffffffffffffff16816002015f9054906101000a900473ffffffffffffffffffffffffffffffffffffffff1673ffffffffffffffffffffffffffffffffffffffff1603610ff1576040517f08c379a0000000000000000000000000000000000000000000000000000000008152600401610fe8906130e0565b60405180910390fd5b5f610ffc8484611188565b90507f000000000000000000000000000000000000000000000000000000000000000073ffffffffffffffffffffffffffffffffffffffff166323b872dd33846002015f9054906101000a900473ffffffffffffffffffffffffffffffffffffffff16846040518463ffffffff1660e01b815260040161107e9392919061318c565b6020604051808303815f875af115801561109a573d5f5f3e3d5ffd5b505050506040513d601f19601f820116820180604052508101906110be91906131d5565b506110fd826002015f9054906101000a900473ffffffffffffffffffffffffffffffffffffffff1633868660405180602001604052805f815250611640565b80826004015f8282546111109190613260565b9250508190555082826005015f82825461112a919061322d565b925050819055503373ffffffffffffffffffffffffffffffffffffffff16847fce81571c08c76465bdf390ad1abe80af8c51c6c4566e3485f9395f13d5ad6328858460405161117a929190613293565b60405180910390a350505050565b5f5f60055f8581526020019081526020015f2090505f816005015482600401546111b2919061330e565b90505f8483600501546111c5919061322d565b90505f81836111d4919061337c565b90508360040154816111e6919061322d565b94505050505092915050565b60045481565b6112006123e5565b5f60055f8481526020019081526020015f206040518060c00160405290815f820154815260200160018201805461123690612ffe565b80601f016020809104026020016040519081016040528092919081815260200182805461126290612ffe565b80156112ad5780601f10611284576101008083540402835291602001916112ad565b820191905f5260205f20905b81548152906001019060200180831161129057829003601f168201915b50505050508152602001600282015f9054906101000a900473ffffffffffffffffffffffffffffffffffffffff1673ffffffffffffffffffffffffffffffffffffffff1673ffffffffffffffffffffffffffffffffffffffff168152602001600382015481526020016004820154815260200160058201548152505090505f73ffffffffffffffffffffffffffffffffffffffff16816040015173ffffffffffffffffffffffffffffffffffffffff160361139d576040517f08c379a000000000000000000000000000000000000000000000000000000000815260040161139490613803565b60405180910390fd5b80915050919050565b5f60015f8473ffffffffffffffffffffffffffffffffffffffff1673ffffffffffffffffffffffffffffffffffffffff1681526020019081526020015f205f8373ffffffffffffffffffffffffffffffffffffffff1673ffffffffffffffffffffffffffffffffffffffff1681526020019081526020015f205f9054906101000a900460ff16905092915050565b5f61143d611746565b90508073ffffffffffffffffffffffffffffffffffffffff168673ffffffffffffffffffffffffffffffffffffffff1614158015611482575061148086826113a6565b155b156114c65780866040517fe237d9220000000000000000000000000000000000000000000000000000000081526004016114bd9291906132ba565b60405180910390fd5b6114d38686868686611640565b505050505050565b6114e3611867565b5f73ffffffffffffffffffffffffffffffffffffffff168173ffffffffffffffffffffffffffffffffffffffff1603611553575f6040517f1e4fbdf700000000000000000000000000000000000000000000000000000000815260040161154a9190612c8d565b60405180910390fd5b61155c816118ee565b50565b5f7fd9b67a26000000000000000000000000000000000000000000000000000000007bffffffffffffffffffffffffffffffffffffffffffffffffffffffff1916827bffffffffffffffffffffffffffffffffffffffffffffffffffffffff1916148061162957507f0e89341c000000000000000000000000000000000000000000000000000000007bffffffffffffffffffffffffffffffffffffffffffffffffffffffff1916827bffffffffffffffffffffffffffffffffffffffffffffffffffffffff1916145b80611639575061163882611baf565b5b9050919050565b5f73ffffffffffffffffffffffffffffffffffffffff168473ffffffffffffffffffffffffffffffffffffffff16036116b0575f6040517f57f447ce0000000000000000000000000000000000000000000000000000000081526004016116a79190612c8d565b60405180910390fd5b5f73ffffffffffffffffffffffffffffffffffffffff168573ffffffffffffffffffffffffffffffffffffffff1603611720575f6040517f01a835140000000000000000000000000000000000000000000000000000000081526004016117179190612c8d565b60405180910390fd5b5f5f61172c8585611c18565b9150915061173d8787848487611c48565b50505050505050565b5f33905090565b5f73ffffffffffffffffffffffffffffffffffffffff168473ffffffffffffffffffffffffffffffffffffffff16036117bd575f6040517f57f447ce0000000000000000000000000000000000000000000000000000000081526004016117b49190612c8d565b60405180910390fd5b5f73ffffffffffffffffffffffffffffffffffffffff168573ffffffffffffffffffffffffffffffffffffffff160361182d575f6040517f01a835140000000000000000000000000000000000000000000000000000000081526004016118249190612c8d565b60405180910390fd5b61183a8585858585611c48565b5050505050565b5f60208202602084010151905092915050565b5f60208202602084010151905092915050565b61186f611746565b73ffffffffffffffffffffffffffffffffffffffff1661188d610b27565b73ffffffffffffffffffffffffffffffffffffffff16146118ec576118b0611746565b6040517f118cdaa70000000000000000000000000000000000000000000000000000000081526004016118e39190612c8d565b60405180910390fd5b565b5f60035f9054906101000a900473ffffffffffffffffffffffffffffffffffffffff1690508160035f6101000a81548173ffffffffffffffffffffffffffffffffffffffff021916908373ffffffffffffffffffffffffffffffffffffffff1602179055508173ffffffffffffffffffffffffffffffffffffffff168173ffffffffffffffffffffffffffffffffffffffff167f8be0079c531659141344cd1fd0a4f28419497f9722a3daafe3b4186f6b6457e060405160405180910390a35050565b5f73ffffffffffffffffffffffffffffffffffffffff168273ffffffffffffffffffffffffffffffffffffffff1603611a21575f6040517fced3e100000000000000000000000000000000000000000000000000000000008152600401611a189190612c8d565b60405180910390fd5b8060015f8573ffffffffffffffffffffffffffffffffffffffff1673ffffffffffffffffffffffffffffffffffffffff1681526020019081526020015f205f8473ffffffffffffffffffffffffffffffffffffffff1673ffffffffffffffffffffffffffffffffffffffff1681526020019081526020015f205f6101000a81548160ff0219169083151502179055508173ffffffffffffffffffffffffffffffffffffffff168373ffffffffffffffffffffffffffffffffffffffff167f17307eab39ab6107e8899845ad3d59bd9653f200f220920489ca2b5937696c3183604051611b0d91906125ca565b60405180910390a3505050565b5f73ffffffffffffffffffffffffffffffffffffffff168473ffffffffffffffffffffffffffffffffffffffff1603611b8a575f6040517f57f447ce000000000000000000000000000000000000000000000000000000008152600401611b819190612c8d565b60405180910390fd5b5f5f611b968585611c18565b91509150611ba75f87848487611c48565b505050505050565b5f7f01ffc9a7000000000000000000000000000000000000000000000000000000007bffffffffffffffffffffffffffffffffffffffffffffffffffffffff1916827bffffffffffffffffffffffffffffffffffffffffffffffffffffffff1916149050919050565b60608060405191506001825283602083015260408201905060018152826020820152604081016040529250929050565b611c5485858585611cf4565b5f73ffffffffffffffffffffffffffffffffffffffff168473ffffffffffffffffffffffffffffffffffffffff1614611ced575f611c90611746565b90506001845103611cdc575f611caf5f8661185490919063ffffffff16565b90505f611cc55f8661185490919063ffffffff16565b9050611cd5838989858589612087565b5050611ceb565b611cea818787878787612236565b5b505b5050505050565b8051825114611d3e57815181516040517f5b059991000000000000000000000000000000000000000000000000000000008152600401611d35929190613293565b60405180910390fd5b5f611d47611746565b90505f5f90505b8351811015611f46575f611d6b828661185490919063ffffffff16565b90505f611d81838661185490919063ffffffff16565b90505f73ffffffffffffffffffffffffffffffffffffffff168873ffffffffffffffffffffffffffffffffffffffff1614611ea4575f5f5f8481526020019081526020015f205f8a73ffffffffffffffffffffffffffffffffffffffff1673ffffffffffffffffffffffffffffffffffffffff1681526020019081526020015f2054905081811015611e5057888183856040517f03dee4c5000000000000000000000000000000000000000000000000000000008152600401611e479493929190613821565b60405180910390fd5b8181035f5f8581526020019081526020015f205f8b73ffffffffffffffffffffffffffffffffffffffff1673ffffffffffffffffffffffffffffffffffffffff1681526020019081526020015f2081905550505b5f73ffffffffffffffffffffffffffffffffffffffff168773ffffffffffffffffffffffffffffffffffffffff1614611f3957805f5f8481526020019081526020015f205f8973ffffffffffffffffffffffffffffffffffffffff1673ffffffffffffffffffffffffffffffffffffffff1681526020019081526020015f205f828254611f319190613260565b925050819055505b5050806001019050611d4e565b506001835103612001575f611f645f8561185490919063ffffffff16565b90505f611f7a5f8561185490919063ffffffff16565b90508573ffffffffffffffffffffffffffffffffffffffff168773ffffffffffffffffffffffffffffffffffffffff168473ffffffffffffffffffffffffffffffffffffffff167fc3d58168c5ae7397731d063d5bbf3d657854427343f4c083240f7aacaa2d0f628585604051611ff2929190613293565b60405180910390a45050612080565b8373ffffffffffffffffffffffffffffffffffffffff168573ffffffffffffffffffffffffffffffffffffffff168273ffffffffffffffffffffffffffffffffffffffff167f4a39dc06d4c0dbc64b70af90fd698a233a518aa5d07e595d983b8c0526c8f7fb8686604051612077929190613864565b60405180910390a45b5050505050565b5f8473ffffffffffffffffffffffffffffffffffffffff163b111561222e578373ffffffffffffffffffffffffffffffffffffffff1663f23a6e6187878686866040518663ffffffff1660e01b81526004016120e79594939291906138eb565b6020604051808303815f875af192505050801561212257506040513d601f19601f8201168201806040525081019061211f9190613957565b60015b6121a3573d805f8114612150576040519150601f19603f3d011682016040523d82523d5f602084013e612155565b606091505b505f81510361219b57846040517f57f447ce0000000000000000000000000000000000000000000000000000000081526004016121929190612c8d565b60405180910390fd5b805181602001fd5b63f23a6e6160e01b7bffffffffffffffffffffffffffffffffffffffffffffffffffffffff1916817bffffffffffffffffffffffffffffffffffffffffffffffffffffffff19161461222c57846040517f57f447ce0000000000000000000000000000000000000000000000000000000081526004016122239190612c8d565b60405180910390fd5b505b505050505050565b5f8473ffffffffffffffffffffffffffffffffffffffff163b11156123dd578373ffffffffffffffffffffffffffffffffffffffff1663bc197c8187878686866040518663ffffffff1660e01b8152600401612296959493929190613982565b6020604051808303815f875af19250505080156122d157506040513d601f19601f820116820180604052508101906122ce9190613957565b60015b612352573d805f81146122ff576040519150601f19603f3d011682016040523d82523d5f602084013e612304565b606091505b505f81510361234a57846040517f57f447ce0000000000000000000000000000000000000000000000000000000081526004016123419190612c8d565b60405180910390fd5b805181602001fd5b63bc197c8160e01b7bffffffffffffffffffffffffffffffffffffffffffffffffffffffff1916817bffffffffffffffffffffffffffffffffffffffffffffffffffffffff1916146123db57846040517f57f447ce0000000000000000000000000000000000000000000000000000000081526004016123d29190612c8d565b60405180910390fd5b505b505050505050565b6040518060c001604052805f8152602001606081526020015f73ffffffffffffffffffffffffffffffffffffffff1681526020015f81526020015f81526020015f81525090565b5f604051905090565b5f5ffd5b5f5ffd5b5f73ffffffffffffffffffffffffffffffffffffffff82169050919050565b5f6124668261243d565b9050919050565b6124768161245c565b8114612480575f5ffd5b50565b5f813590506124918161246d565b92915050565b5f819050919050565b6124a981612497565b81146124b3575f5ffd5b50565b5f813590506124c4816124a0565b92915050565b5f5f604083850312156124e0576124df612435565b5b5f6124ed85828601612483565b92505060206124fe858286016124b6565b9150509250929050565b61251181612497565b82525050565b5f60208201905061252a5f830184612508565b92915050565b5f7fffffffff0000000000000000000000000000000000000000000000000000000082169050919050565b61256481612530565b811461256e575f5ffd5b50565b5f8135905061257f8161255b565b92915050565b5f6020828403121561259a57612599612435565b5b5f6125a784828501612571565b91505092915050565b5f8115159050919050565b6125c4816125b0565b82525050565b5f6020820190506125dd5f8301846125bb565b92915050565b5f602082840312156125f8576125f7612435565b5b5f612605848285016124b6565b91505092915050565b5f81519050919050565b5f82825260208201905092915050565b8281835e5f83830152505050565b5f601f19601f8301169050919050565b5f6126508261260e565b61265a8185612618565b935061266a818560208601612628565b61267381612636565b840191505092915050565b5f6020820190508181035f8301526126968184612646565b905092915050565b5f5f604083850312156126b4576126b3612435565b5b5f6126c1858286016124b6565b92505060206126d2858286016124b6565b9150509250929050565b6126e58161245c565b82525050565b5f60c0820190506126fe5f830189612508565b81810360208301526127108188612646565b905061271f60408301876126dc565b61272c6060830186612508565b6127396080830185612508565b61274660a0830184612508565b979650505050505050565b5f5ffd5b7f4e487b71000000000000000000000000000000000000000000000000000000005f52604160045260245ffd5b61278b82612636565b810181811067ffffffffffffffff821117156127aa576127a9612755565b5b80604052505050565b5f6127bc61242c565b90506127c88282612782565b919050565b5f67ffffffffffffffff8211156127e7576127e6612755565b5b602082029050602081019050919050565b5f5ffd5b5f61280e612809846127cd565b6127b3565b90508083825260208201905060208402830185811115612831576128306127f8565b5b835b8181101561285a578061284688826124b6565b845260208401935050602081019050612833565b5050509392505050565b5f82601f83011261287857612877612751565b5b81356128888482602086016127fc565b91505092915050565b5f5ffd5b5f67ffffffffffffffff8211156128af576128ae612755565b5b6128b882612636565b9050602081019050919050565b828183375f83830152505050565b5f6128e56128e084612895565b6127b3565b90508281526020810184848401111561290157612900612891565b5b61290c8482856128c5565b509392505050565b5f82601f83011261292857612927612751565b5b81356129388482602086016128d3565b91505092915050565b5f5f5f5f5f60a0868803121561295a57612959612435565b5b5f61296788828901612483565b955050602061297888828901612483565b945050604086013567ffffffffffffffff81111561299957612998612439565b5b6129a588828901612864565b935050606086013567ffffffffffffffff8111156129c6576129c5612439565b5b6129d288828901612864565b925050608086013567ffffffffffffffff8111156129f3576129f2612439565b5b6129ff88828901612914565b9150509295509295909350565b5f819050919050565b5f612a2f612a2a612a258461243d565b612a0c565b61243d565b9050919050565b5f612a4082612a15565b9050919050565b5f612a5182612a36565b9050919050565b612a6181612a47565b82525050565b5f602082019050612a7a5f830184612a58565b92915050565b5f67ffffffffffffffff821115612a9a57612a99612755565b5b602082029050602081019050919050565b5f612abd612ab884612a80565b6127b3565b90508083825260208201905060208402830185811115612ae057612adf6127f8565b5b835b81811015612b095780612af58882612483565b845260208401935050602081019050612ae2565b5050509392505050565b5f82601f830112612b2757612b26612751565b5b8135612b37848260208601612aab565b91505092915050565b5f5f60408385031215612b5657612b55612435565b5b5f83013567ffffffffffffffff811115612b7357612b72612439565b5b612b7f85828601612b13565b925050602083013567ffffffffffffffff811115612ba057612b9f612439565b5b612bac85828601612864565b9150509250929050565b5f81519050919050565b5f82825260208201905092915050565b5f819050602082019050919050565b612be881612497565b82525050565b5f612bf98383612bdf565b60208301905092915050565b5f602082019050919050565b5f612c1b82612bb6565b612c258185612bc0565b9350612c3083612bd0565b805f5b83811015612c60578151612c478882612bee565b9750612c5283612c05565b925050600181019050612c33565b5085935050505092915050565b5f6020820190508181035f830152612c858184612c11565b905092915050565b5f602082019050612ca05f8301846126dc565b92915050565b612caf816125b0565b8114612cb9575f5ffd5b50565b5f81359050612cca81612ca6565b92915050565b5f5f60408385031215612ce657612ce5612435565b5b5f612cf385828601612483565b9250506020612d0485828601612cbc565b9150509250929050565b5f5ffd5b5f5f83601f840112612d2757612d26612751565b5b8235905067ffffffffffffffff811115612d4457612d43612d0e565b5b602083019150836001820283011115612d6057612d5f6127f8565b5b9250929050565b5f5f5f5f60608587031215612d7f57612d7e612435565b5b5f85013567ffffffffffffffff811115612d9c57612d9b612439565b5b612da887828801612d12565b94509450506020612dbb878288016124b6565b9250506040612dcc878288016124b6565b91505092959194509250565b5f82825260208201905092915050565b5f612df28261260e565b612dfc8185612dd8565b9350612e0c818560208601612628565b612e1581612636565b840191505092915050565b612e298161245c565b82525050565b5f60c083015f830151612e445f860182612bdf565b5060208301518482036020860152612e5c8282612de8565b9150506040830151612e716040860182612e20565b506060830151612e846060860182612bdf565b506080830151612e976080860182612bdf565b5060a0830151612eaa60a0860182612bdf565b508091505092915050565b5f6020820190508181035f830152612ecd8184612e2f565b905092915050565b5f5f60408385031215612eeb57612eea612435565b5b5f612ef885828601612483565b9250506020612f0985828601612483565b9150509250929050565b5f5f5f5f5f60a08688031215612f2c57612f2b612435565b5b5f612f3988828901612483565b9550506020612f4a88828901612483565b9450506040612f5b888289016124b6565b9350506060612f6c888289016124b6565b925050608086013567ffffffffffffffff811115612f8d57612f8c612439565b5b612f9988828901612914565b9150509295509295909350565b5f60208284031215612fbb57612fba612435565b5b5f612fc884828501612483565b91505092915050565b7f4e487b71000000000000000000000000000000000000000000000000000000005f52602260045260245ffd5b5f600282049050600182168061301557607f821691505b60208210810361302857613027612fd1565b5b50919050565b7f446553746f636b3a20616d6f756e74206d757374206265203e203000000000005f82015250565b5f613062601b83612618565b915061306d8261302e565b602082019050919050565b5f6020820190508181035f83015261308f81613056565b9050919050565b7f446553746f636b3a20636f6d70616e7920646f6573206e6f74206578697374005f82015250565b5f6130ca601f83612618565b91506130d582613096565b602082019050919050565b5f6020820190508181035f8301526130f7816130be565b9050919050565b7f446553746f636b3a20696e73756666696369656e742073686172652062616c615f8201527f6e63650000000000000000000000000000000000000000000000000000000000602082015250565b5f613158602383612618565b9150613163826130fe565b604082019050919050565b5f6020820190508181035f8301526131858161314c565b9050919050565b5f60608201905061319f5f8301866126dc565b6131ac60208301856126dc565b6131b96040830184612508565b949350505050565b5f815190506131cf81612ca6565b92915050565b5f602082840312156131ea576131e9612435565b5b5f6131f7848285016131c1565b91505092915050565b7f4e487b71000000000000000000000000000000000000000000000000000000005f52601160045260245ffd5b5f61323782612497565b915061324283612497565b925082820390508181111561325a57613259613200565b5b92915050565b5f61326a82612497565b915061327583612497565b925082820190508082111561328d5761328c613200565b5b92915050565b5f6040820190506132a65f830185612508565b6132b36020830184612508565b9392505050565b5f6040820190506132cd5f8301856126dc565b6132da60208301846126dc565b9392505050565b7f4e487b71000000000000000000000000000000000000000000000000000000005f52603260045260245ffd5b5f61331882612497565b915061332383612497565b925082820261333181612497565b9150828204841483151761334857613347613200565b5b5092915050565b7f4e487b71000000000000000000000000000000000000000000000000000000005f52601260045260245ffd5b5f61338682612497565b915061339183612497565b9250826133a1576133a061334f565b5b828204905092915050565b7f446553746f636b3a20746f74616c20737570706c79206d757374206265203e205f8201527f3000000000000000000000000000000000000000000000000000000000000000602082015250565b5f613406602183612618565b9150613411826133ac565b604082019050919050565b5f6020820190508181035f830152613433816133fa565b9050919050565b7f446553746f636b3a20696e73756666696369656e74206c6971756964697479005f82015250565b5f61346e601f83612618565b91506134798261343a565b602082019050919050565b5f6020820190508181035f83015261349b81613462565b9050919050565b5f6134ac82612497565b91507fffffffffffffffffffffffffffffffffffffffffffffffffffffffffffffffff82036134de576134dd613200565b5b600182019050919050565b5f819050815f5260205f209050919050565b5f6020601f8301049050919050565b5f82821b905092915050565b5f600883026135457fffffffffffffffffffffffffffffffffffffffffffffffffffffffffffffffff8261350a565b61354f868361350a565b95508019841693508086168417925050509392505050565b5f61358161357c61357784612497565b612a0c565b612497565b9050919050565b5f819050919050565b61359a83613567565b6135ae6135a682613588565b848454613516565b825550505050565b5f5f905090565b6135c56135b6565b6135d0818484613591565b505050565b5b818110156135f3576135e85f826135bd565b6001810190506135d6565b5050565b601f82111561363857613609816134e9565b613612846134fb565b81016020851015613621578190505b61363561362d856134fb565b8301826135d5565b50505b505050565b5f82821c905092915050565b5f6136585f198460080261363d565b1980831691505092915050565b5f6136708383613649565b9150826002028217905092915050565b6136898261260e565b67ffffffffffffffff8111156136a2576136a1612755565b5b6136ac8254612ffe565b6136b78282856135f7565b5f60209050601f8311600181146136e8575f84156136d6578287015190505b6136e08582613665565b865550613747565b601f1984166136f6866134e9565b5f5b8281101561371d578489015182556001820191506020850194506020810190506136f8565b8683101561373a5784890151613736601f891682613649565b8355505b6001600288020188555050505b505050505050565b5f61375a8385612618565b93506137678385846128c5565b61377083612636565b840190509392505050565b5f6060820190508181035f83015261379481868861374f565b90506137a36020830185612508565b6137b06040830184612508565b95945050505050565b7f436f6d70616e7920646f6573206e6f74206578697374000000000000000000005f82015250565b5f6137ed601683612618565b91506137f8826137b9565b602082019050919050565b5f6020820190508181035f83015261381a816137e1565b9050919050565b5f6080820190506138345f8301876126dc565b6138416020830186612508565b61384e6040830185612508565b61385b6060830184612508565b95945050505050565b5f6040820190508181035f83015261387c8185612c11565b905081810360208301526138908184612c11565b90509392505050565b5f81519050919050565b5f82825260208201905092915050565b5f6138bd82613899565b6138c781856138a3565b93506138d7818560208601612628565b6138e081612636565b840191505092915050565b5f60a0820190506138fe5f8301886126dc565b61390b60208301876126dc565b6139186040830186612508565b6139256060830185612508565b818103608083015261393781846138b3565b90509695505050505050565b5f815190506139518161255b565b92915050565b5f6020828403121561396c5761396b612435565b5b5f61397984828501613943565b91505092915050565b5f60a0820190506139955f8301886126dc565b6139a260208301876126dc565b81810360408301526139b48186612c11565b905081810360608301526139c88185612c11565b905081810360808301526139dc81846138b3565b9050969550505050505056fea2646970667358221220e2161583224bdbad9a204094e155167de6fb36c1d7818d22a43cddeca4f4530864736f6c634300081e0033","linkReferences":{}},"methodIdentifiers":{"MINIMUM_LIQUIDITY()":"ba9a7a56","balanceOf(address,uint256)":"00fdd58e","balanceOfBatch(address[],uint256[])":"4e1273f4","buyShares(uint256,uint256)":"beebc5da","companies(uint256)":"2813d19d","destockToken()":"43ae8a65","getBuyPrice(uint256,uint256)":"c157253d","getCompanyDetails(uint256)":"daf64aa5","getSellPrice(uint256,uint256)":"9477d85d","getSharePrice(uint256)":"bca7d4e1","isApprovedForAll(address,address)":"e985e9c5","nextCompanyId()":"d8d3c829","owner()":"8da5cb5b","registerCompany(string,uint256,uint256)":"ba8c85ae","renounceOwnership()":"715018a6","safeBatchTransferFrom(address,address,uint256[],uint256[],bytes)":"2eb2c2d6","safeTransferFrom(address,address,uint256,uint256,bytes)":"f242432a","sellShares(uint256,uint256)":"2279a970","setApprovalForAll(address,bool)":"a22cb465","supportsInterface(bytes4)":"01ffc9a7","totalCompanies()":"3b4cc7a3","transferOwnership(address)":"f2fde38b","uri(uint256)":"0e89341c"},"id":40}