{"abi":[{"type":"constructor","inputs":[],"stateMutability":"nonpayable"},{"type":"function","name":"allowance","inputs":[{"name":"owner","type":"address","internalType":"address"},{"name":"spender","type":"address","internalType":"address"}],"outputs":[{"name":"","type":"uint256","internalType":"uint256"}],"stateMutability":"view"},{"type":"function","name":"approve","inputs":[{"name":"spender","type":"address","internalType":"address"},{"name":"value","type":"uint256","internalType":"uint256"}],"outputs":[{"name":"","type":"bool","internalType":"bool"}],"stateMutability":"nonpayable"},{"type":"function","name":"balanceOf","inputs":[{"name":"account","type":"address","internalType":"address"}],"outputs":[{"name":"","type":"uint256","internalType":"uint256"}],"stateMutability":"view"},{"type":"function","name":"batchAirDrop","inputs":[{"name":"recipients","type":"address[]","internalType":"address[]"},{"name":"amounts","type":"uint256[]","internalType":"uint256[]"}],"outputs":[],"stateMutability":"nonpayable"},{"type":"function","name":"cap","inputs":[],"outputs":[{"name":"","type":"uint256","internalType":"uint256"}],"stateMutability":"view"},{"type":"function","name":"decimals","inputs":[],"outputs":[{"name":"","type":"uint8","internalType":"uint8"}],"stateMutability":"view"},{"type":"function","name":"mint","inputs":[{"name":"to","type":"address","internalType":"address"},{"name":"amount","type":"uint256","internalType":"uint256"}],"outputs":[],"stateMutability":"nonpayable"},{"type":"function","name":"name","inputs":[],"outputs":[{"name":"","type":"string","internalType":"string"}],"stateMutability":"view"},{"type":"function","name":"owner","inputs":[],"outputs":[{"name":"","type":"address","internalType":"address"}],"stateMutability":"view"},{"type":"function","name":"renounceOwnership","inputs":[],"outputs":[],"stateMutability":"nonpayable"},{"type":"function","name":"symbol","inputs":[],"outputs":[{"name":"","type":"string","internalType":"string"}],"stateMutability":"view"},{"type":"function","name":"totalSupply","inputs":[],"outputs":[{"name":"","type":"uint256","internalType":"uint256"}],"stateMutability":"view"},{"type":"function","name":"transfer","inputs":[{"name":"to","type":"address","internalType":"address"},{"name":"value","type":"uint256","internalType":"uint256"}],"outputs":[{"name":"","type":"bool","internalType":"bool"}],"stateMutability":"nonpayable"},{"type":"function","name":"transferFrom","inputs":[{"name":"from","type":"address","internalType":"address"},{"name":"to","type":"address","internalType":"address"},{"name":"value","type":"uint256","internalType":"uint256"}],"outputs":[{"name":"","type":"bool","internalType":"bool"}],"stateMutability":"nonpayable"},{"type":"function","name":"transferFromContract","inputs":[{"name":"to","type":"address","internalType":"address"},{"name":"amount","type":"uint256","internalType":"uint256"}],"outputs":[],"stateMutability":"nonpayable"},{"type":"function","name":"transferOwnership","inputs":[{"name":"newOwner","type":"address","internalType":"address"}],"outputs":[],"stateMutability":"nonpayable"},{"type":"event","name":"Approval","inputs":[{"name":"owner","type":"address","indexed":true,"internalType":"address"},{"name":"spender","type":"address","indexed":true,"internalType":"address"},{"name":"value","type":"uint256","indexed":false,"internalType":"uint256"}],"anonymous":false},{"type":"event","name":"OwnershipTransferred","inputs":[{"name":"previousOwner","type":"address","indexed":true,"internalType":"address"},{"name":"newOwner","type":"address","indexed":true,"internalType":"address"}],"anonymous":false},{"type":"event","name":"Transfer","inputs":[{"name":"from","type":"address","indexed":true,"internalType":"address"},{"name":"to","type":"address","indexed":true,"internalType":"address"},{"name":"value","type":"uint256","indexed":false,"internalType":"uint256"}],"anonymous":false},{"type":"error","name":"ERC20ExceededCap","inputs":[{"name":"increasedSupply","type":"uint256","internalType":"uint256"},{"name":"cap","type":"uint256","internalType":"uint256"}]},{"type":"error","name":"ERC20InsufficientAllowance","inputs":[{"name":"spender","type":"address","internalType":"address"},{"name":"allowance","type":"uint256","internalType":"uint256"},{"name":"needed","type":"uint256","internalType":"uint256"}]},{"type":"error","name":"ERC20InsufficientBalance","inputs":[{"name":"sender","type":"address","internalType":"address"},{"name":"balance","type":"uint256","internalType":"uint256"},{"name":"needed","type":"uint256","internalType":"uint256"}]},{"type":"error","name":"ERC20InvalidApprover","inputs":[{"name":"approver","type":"address","internalType":"address"}]},{"type":"error","name":"ERC20InvalidCap","inputs":[{"name":"cap","type":"uint256","internalType":"uint256"}]},{"type":"error","name":"ERC20InvalidReceiver","inputs":[{"name":"receiver","type":"address","internalType":"address"}]},{"type":"error","name":"ERC20InvalidSender","inputs":[{"name":"sender","type":"address","internalType":"address"}]},{"type":"error","name":"ERC20InvalidSpender","inputs":[{"name":"spender","type":"address","internalType":"address"}]},{"type":"error","name":"OwnableInvalidOwner","inputs":[{"name":"owner","type":"address","internalType":"address"}]},{"type":"error","name":"OwnableUnauthorizedAccount","inputs":[{"name":"account","type":"address","internalType":"address"}]},{"type":"error","name":"ReentrancyGuardReentrantCall","inputs":[]}],"bytecode":{"object":"0x60a060405234801561000f575f5ffd5b50336a084595161401484a0000006040518060400160405280600d81526020017f446553746f636b20546f6b656e000000000000000000000000000000000000008152506040518060400160405280600481526020017f4453544b000000000000000000000000000000000000000000000000000000008152508160039081610098919061083f565b5080600490816100a8919061083f565b5050505f81036100ef575f6040517f392e1e270000000000000000000000000000000000000000000000000000000081526004016100e69190610947565b60405180910390fd5b8060808181525050505f73ffffffffffffffffffffffffffffffffffffffff168173ffffffffffffffffffffffffffffffffffffffff1603610168575f6040517f1e4fbdf700000000000000000000000000000000000000000000000000000000815260040161015f919061099f565b60405180910390fd5b610177816101bc60201b60201c565b5060016006819055506101b73061019261027f60201b60201c565b600a61019e9190610b20565b624c4b406101ac9190610b6a565b61028760201b60201c565b610c62565b5f60055f9054906101000a900473ffffffffffffffffffffffffffffffffffffffff1690508160055f6101000a81548173ffffffffffffffffffffffffffffffffffffffff021916908373ffffffffffffffffffffffffffffffffffffffff1602179055508173ffffffffffffffffffffffffffffffffffffffff168173ffffffffffffffffffffffffffffffffffffffff167f8be0079c531659141344cd1fd0a4f28419497f9722a3daafe3b4186f6b6457e060405160405180910390a35050565b5f6012905090565b5f73ffffffffffffffffffffffffffffffffffffffff168273ffffffffffffffffffffffffffffffffffffffff16036102f7575f6040517fec442f050000000000000000000000000000000000000000000000000000000081526004016102ee919061099f565b60405180910390fd5b6103085f838361030c60201b60201c565b5050565b61031d83838361032260201b60201c565b505050565b6103338383836103d760201b60201c565b5f73ffffffffffffffffffffffffffffffffffffffff168373ffffffffffffffffffffffffffffffffffffffff16036103d2575f6103756105f060201b60201c565b90505f6103866105f960201b60201c565b9050818111156103cf5780826040517f9e79f8540000000000000000000000000000000000000000000000000000000081526004016103c6929190610bba565b60405180910390fd5b50505b505050565b5f73ffffffffffffffffffffffffffffffffffffffff168373ffffffffffffffffffffffffffffffffffffffff1603610427578060025f82825461041b9190610be1565b925050819055506104f5565b5f5f5f8573ffffffffffffffffffffffffffffffffffffffff1673ffffffffffffffffffffffffffffffffffffffff1681526020019081526020015f20549050818110156104b0578381836040517fe450d38c0000000000000000000000000000000000000000000000000000000081526004016104a793929190610c14565b60405180910390fd5b8181035f5f8673ffffffffffffffffffffffffffffffffffffffff1673ffffffffffffffffffffffffffffffffffffffff1681526020019081526020015f2081905550505b5f73ffffffffffffffffffffffffffffffffffffffff168273ffffffffffffffffffffffffffffffffffffffff160361053c578060025f8282540392505081905550610586565b805f5f8473ffffffffffffffffffffffffffffffffffffffff1673ffffffffffffffffffffffffffffffffffffffff1681526020019081526020015f205f82825401925050819055505b8173ffffffffffffffffffffffffffffffffffffffff168373ffffffffffffffffffffffffffffffffffffffff167fddf252ad1be2c89b69c2b068fc378daa952ba7f163c4a11628f55a4df523b3ef836040516105e39190610c49565b60405180910390a3505050565b5f608051905090565b5f600254905090565b5f81519050919050565b7f4e487b71000000000000000000000000000000000000000000000000000000005f52604160045260245ffd5b7f4e487b71000000000000000000000000000000000000000000000000000000005f52602260045260245ffd5b5f600282049050600182168061067d57607f821691505b6020821081036106905761068f610639565b5b50919050565b5f819050815f5260205f209050919050565b5f6020601f8301049050919050565b5f82821b905092915050565b5f600883026106f27fffffffffffffffffffffffffffffffffffffffffffffffffffffffffffffffff826106b7565b6106fc86836106b7565b95508019841693508086168417925050509392505050565b5f819050919050565b5f819050919050565b5f61074061073b61073684610714565b61071d565b610714565b9050919050565b5f819050919050565b61075983610726565b61076d61076582610747565b8484546106c3565b825550505050565b5f5f905090565b610784610775565b61078f818484610750565b505050565b5b818110156107b2576107a75f8261077c565b600181019050610795565b5050565b601f8211156107f7576107c881610696565b6107d1846106a8565b810160208510156107e0578190505b6107f46107ec856106a8565b830182610794565b50505b505050565b5f82821c905092915050565b5f6108175f19846008026107fc565b1980831691505092915050565b5f61082f8383610808565b9150826002028217905092915050565b61084882610602565b67ffffffffffffffff8111156108615761086061060c565b5b61086b8254610666565b6108768282856107b6565b5f60209050601f8311600181146108a7575f8415610895578287015190505b61089f8582610824565b865550610906565b601f1984166108b586610696565b5f5b828110156108dc578489015182556001820191506020850194506020810190506108b7565b868310156108f957848901516108f5601f891682610808565b8355505b6001600288020188555050505b505050505050565b5f819050919050565b5f61093161092c6109278461090e565b61071d565b610714565b9050919050565b61094181610917565b82525050565b5f60208201905061095a5f830184610938565b92915050565b5f73ffffffffffffffffffffffffffffffffffffffff82169050919050565b5f61098982610960565b9050919050565b6109998161097f565b82525050565b5f6020820190506109b25f830184610990565b92915050565b7f4e487b71000000000000000000000000000000000000000000000000000000005f52601160045260245ffd5b5f8160011c9050919050565b5f5f8291508390505b6001851115610a3a57808604811115610a1657610a156109b8565b5b6001851615610a255780820291505b8081029050610a33856109e5565b94506109fa565b94509492505050565b5f82610a525760019050610b0d565b81610a5f575f9050610b0d565b8160018114610a755760028114610a7f57610aae565b6001915050610b0d565b60ff841115610a9157610a906109b8565b5b8360020a915084821115610aa857610aa76109b8565b5b50610b0d565b5060208310610133831016604e8410600b8410161715610ae35782820a905083811115610ade57610add6109b8565b5b610b0d565b610af084848460016109f1565b92509050818404811115610b0757610b066109b8565b5b81810290505b9392505050565b5f60ff82169050919050565b5f610b2a82610714565b9150610b3583610b14565b9250610b627fffffffffffffffffffffffffffffffffffffffffffffffffffffffffffffffff8484610a43565b905092915050565b5f610b7482610714565b9150610b7f83610714565b9250828202610b8d81610714565b91508282048414831517610ba457610ba36109b8565b5b5092915050565b610bb481610714565b82525050565b5f604082019050610bcd5f830185610bab565b610bda6020830184610bab565b9392505050565b5f610beb82610714565b9150610bf683610714565b9250828201905080821115610c0e57610c0d6109b8565b5b92915050565b5f606082019050610c275f830186610990565b610c346020830185610bab565b610c416040830184610bab565b949350505050565b5f602082019050610c5c5f830184610bab565b92915050565b6080516115af610c7a5f395f61043b01526115af5ff3fe608060405234801561000f575f5ffd5b50600436106100fe575f3560e01c806370a0823111610095578063a9059cbb11610064578063a9059cbb14610288578063dd62ed3e146102b8578063e6c35a91146102e8578063f2fde38b14610304576100fe565b806370a0823114610212578063715018a6146102425780638da5cb5b1461024c57806395d89b411461026a576100fe565b806323b872dd116100d157806323b872dd1461018a578063313ce567146101ba578063355274ea146101d857806340c10f19146101f6576100fe565b806306fdde0314610102578063095ea7b31461012057806318160ddd146101505780631a88f3061461016e575b5f5ffd5b61010a610320565b6040516101179190611034565b60405180910390f35b61013a600480360381019061013591906110e9565b6103b0565b6040516101479190611141565b60405180910390f35b6101586103d2565b6040516101659190611169565b60405180910390f35b610188600480360381019061018391906110e9565b6103db565b005b6101a4600480360381019061019f9190611182565b610402565b6040516101b19190611141565b60405180910390f35b6101c2610430565b6040516101cf91906111ed565b60405180910390f35b6101e0610438565b6040516101ed9190611169565b60405180910390f35b610210600480360381019061020b91906110e9565b61045f565b005b61022c60048036038101906102279190611206565b610475565b6040516102399190611169565b60405180910390f35b61024a6104ba565b005b6102546104cd565b6040516102619190611240565b60405180910390f35b6102726104f5565b60405161027f9190611034565b60405180910390f35b6102a2600480360381019061029d91906110e9565b610585565b6040516102af9190611141565b60405180910390f35b6102d260048036038101906102cd9190611259565b6105a7565b6040516102df9190611169565b60405180910390f35b61030260048036038101906102fd919061134d565b610629565b005b61031e60048036038101906103199190611206565b6106f0565b005b60606003805461032f906113f8565b80601f016020809104026020016040519081016040528092919081815260200182805461035b906113f8565b80156103a65780601f1061037d576101008083540402835291602001916103a6565b820191905f5260205f20905b81548152906001019060200180831161038957829003601f168201915b5050505050905090565b5f5f6103ba610774565b90506103c781858561077b565b600191505092915050565b5f600254905090565b6103e361078d565b6103eb610814565b6103f630838361085a565b6103fe61094a565b5050565b5f5f61040c610774565b9050610419858285610954565b61042485858561085a565b60019150509392505050565b5f6012905090565b5f7f0000000000000000000000000000000000000000000000000000000000000000905090565b61046761078d565b61047182826109e7565b5050565b5f5f5f8373ffffffffffffffffffffffffffffffffffffffff1673ffffffffffffffffffffffffffffffffffffffff1681526020019081526020015f20549050919050565b6104c261078d565b6104cb5f610a66565b565b5f60055f9054906101000a900473ffffffffffffffffffffffffffffffffffffffff16905090565b606060048054610504906113f8565b80601f0160208091040260200160405190810160405280929190818152602001828054610530906113f8565b801561057b5780601f106105525761010080835404028352916020019161057b565b820191905f5260205f20905b81548152906001019060200180831161055e57829003601f168201915b5050505050905090565b5f5f61058f610774565b905061059c81858561085a565b600191505092915050565b5f60015f8473ffffffffffffffffffffffffffffffffffffffff1673ffffffffffffffffffffffffffffffffffffffff1681526020019081526020015f205f8373ffffffffffffffffffffffffffffffffffffffff1673ffffffffffffffffffffffffffffffffffffffff1681526020019081526020015f2054905092915050565b610631610814565b818190508484905014610679576040517f08c379a000000000000000000000000000000000000000000000000000000000815260040161067090611472565b60405180910390fd5b5f5f90505b848490508110156106e1576106d4308686848181106106a05761069f611490565b5b90506020020160208101906106b59190611206565b8585858181106106c8576106c7611490565b5b9050602002013561085a565b808060010191505061067e565b506106ea61094a565b50505050565b6106f861078d565b5f73ffffffffffffffffffffffffffffffffffffffff168173ffffffffffffffffffffffffffffffffffffffff1603610768575f6040517f1e4fbdf700000000000000000000000000000000000000000000000000000000815260040161075f9190611240565b60405180910390fd5b61077181610a66565b50565b5f33905090565b6107888383836001610b29565b505050565b610795610774565b73ffffffffffffffffffffffffffffffffffffffff166107b36104cd565b73ffffffffffffffffffffffffffffffffffffffff1614610812576107d6610774565b6040517f118cdaa70000000000000000000000000000000000000000000000000000000081526004016108099190611240565b60405180910390fd5b565b600260065403610850576040517f3ee5aeb500000000000000000000000000000000000000000000000000000000815260040160405180910390fd5b6002600681905550565b5f73ffffffffffffffffffffffffffffffffffffffff168373ffffffffffffffffffffffffffffffffffffffff16036108ca575f6040517f96c6fd1e0000000000000000000000000000000000000000000000000000000081526004016108c19190611240565b60405180910390fd5b5f73ffffffffffffffffffffffffffffffffffffffff168273ffffffffffffffffffffffffffffffffffffffff160361093a575f6040517fec442f050000000000000000000000000000000000000000000000000000000081526004016109319190611240565b60405180910390fd5b610945838383610cf8565b505050565b6001600681905550565b5f61095f84846105a7565b90507fffffffffffffffffffffffffffffffffffffffffffffffffffffffffffffffff8110156109e157818110156109d2578281836040517ffb8f41b20000000000000000000000000000000000000000000000000000000081526004016109c9939291906114bd565b60405180910390fd5b6109e084848484035f610b29565b5b50505050565b5f73ffffffffffffffffffffffffffffffffffffffff168273ffffffffffffffffffffffffffffffffffffffff1603610a57575f6040517fec442f05000000000000000000000000000000000000000000000000000000008152600401610a4e9190611240565b60405180910390fd5b610a625f8383610cf8565b5050565b5f60055f9054906101000a900473ffffffffffffffffffffffffffffffffffffffff1690508160055f6101000a81548173ffffffffffffffffffffffffffffffffffffffff021916908373ffffffffffffffffffffffffffffffffffffffff1602179055508173ffffffffffffffffffffffffffffffffffffffff168173ffffffffffffffffffffffffffffffffffffffff167f8be0079c531659141344cd1fd0a4f28419497f9722a3daafe3b4186f6b6457e060405160405180910390a35050565b5f73ffffffffffffffffffffffffffffffffffffffff168473ffffffffffffffffffffffffffffffffffffffff1603610b99575f6040517fe602df05000000000000000000000000000000000000000000000000000000008152600401610b909190611240565b60405180910390fd5b5f73ffffffffffffffffffffffffffffffffffffffff168373ffffffffffffffffffffffffffffffffffffffff1603610c09575f6040517f94280d62000000000000000000000000000000000000000000000000000000008152600401610c009190611240565b60405180910390fd5b8160015f8673ffffffffffffffffffffffffffffffffffffffff1673ffffffffffffffffffffffffffffffffffffffff1681526020019081526020015f205f8573ffffffffffffffffffffffffffffffffffffffff1673ffffffffffffffffffffffffffffffffffffffff1681526020019081526020015f20819055508015610cf2578273ffffffffffffffffffffffffffffffffffffffff168473ffffffffffffffffffffffffffffffffffffffff167f8c5be1e5ebec7d5bd14f71427d1e84f3dd0314c0f7b2291e5b200ac8c7c3b92584604051610ce99190611169565b60405180910390a35b50505050565b610d03838383610d08565b505050565b610d13838383610dab565b5f73ffffffffffffffffffffffffffffffffffffffff168373ffffffffffffffffffffffffffffffffffffffff1603610da6575f610d4f610438565b90505f610d5a6103d2565b905081811115610da35780826040517f9e79f854000000000000000000000000000000000000000000000000000000008152600401610d9a9291906114f2565b60405180910390fd5b50505b505050565b5f73ffffffffffffffffffffffffffffffffffffffff168373ffffffffffffffffffffffffffffffffffffffff1603610dfb578060025f828254610def9190611546565b92505081905550610ec9565b5f5f5f8573ffffffffffffffffffffffffffffffffffffffff1673ffffffffffffffffffffffffffffffffffffffff1681526020019081526020015f2054905081811015610e84578381836040517fe450d38c000000000000000000000000000000000000000000000000000000008152600401610e7b939291906114bd565b60405180910390fd5b8181035f5f8673ffffffffffffffffffffffffffffffffffffffff1673ffffffffffffffffffffffffffffffffffffffff1681526020019081526020015f2081905550505b5f73ffffffffffffffffffffffffffffffffffffffff168273ffffffffffffffffffffffffffffffffffffffff1603610f10578060025f8282540392505081905550610f5a565b805f5f8473ffffffffffffffffffffffffffffffffffffffff1673ffffffffffffffffffffffffffffffffffffffff1681526020019081526020015f205f82825401925050819055505b8173ffffffffffffffffffffffffffffffffffffffff168373ffffffffffffffffffffffffffffffffffffffff167fddf252ad1be2c89b69c2b068fc378daa952ba7f163c4a11628f55a4df523b3ef83604051610fb79190611169565b60405180910390a3505050565b5f81519050919050565b5f82825260208201905092915050565b8281835e5f83830152505050565b5f601f19601f8301169050919050565b5f61100682610fc4565b6110108185610fce565b9350611020818560208601610fde565b61102981610fec565b840191505092915050565b5f6020820190508181035f83015261104c8184610ffc565b905092915050565b5f5ffd5b5f5ffd5b5f73ffffffffffffffffffffffffffffffffffffffff82169050919050565b5f6110858261105c565b9050919050565b6110958161107b565b811461109f575f5ffd5b50565b5f813590506110b08161108c565b92915050565b5f819050919050565b6110c8816110b6565b81146110d2575f5ffd5b50565b5f813590506110e3816110bf565b92915050565b5f5f604083850312156110ff576110fe611054565b5b5f61110c858286016110a2565b925050602061111d858286016110d5565b9150509250929050565b5f8115159050919050565b61113b81611127565b82525050565b5f6020820190506111545f830184611132565b92915050565b611163816110b6565b82525050565b5f60208201905061117c5f83018461115a565b92915050565b5f5f5f6060848603121561119957611198611054565b5b5f6111a6868287016110a2565b93505060206111b7868287016110a2565b92505060406111c8868287016110d5565b9150509250925092565b5f60ff82169050919050565b6111e7816111d2565b82525050565b5f6020820190506112005f8301846111de565b92915050565b5f6020828403121561121b5761121a611054565b5b5f611228848285016110a2565b91505092915050565b61123a8161107b565b82525050565b5f6020820190506112535f830184611231565b92915050565b5f5f6040838503121561126f5761126e611054565b5b5f61127c858286016110a2565b925050602061128d858286016110a2565b9150509250929050565b5f5ffd5b5f5ffd5b5f5ffd5b5f5f83601f8401126112b8576112b7611297565b5b8235905067ffffffffffffffff8111156112d5576112d461129b565b5b6020830191508360208202830111156112f1576112f061129f565b5b9250929050565b5f5f83601f84011261130d5761130c611297565b5b8235905067ffffffffffffffff81111561132a5761132961129b565b5b6020830191508360208202830111156113465761134561129f565b5b9250929050565b5f5f5f5f6040858703121561136557611364611054565b5b5f85013567ffffffffffffffff81111561138257611381611058565b5b61138e878288016112a3565b9450945050602085013567ffffffffffffffff8111156113b1576113b0611058565b5b6113bd878288016112f8565b925092505092959194509250565b7f4e487b71000000000000000000000000000000000000000000000000000000005f52602260045260245ffd5b5f600282049050600182168061140f57607f821691505b602082108103611422576114216113cb565b5b50919050565b7f4c656e677468206d69736d6174636800000000000000000000000000000000005f82015250565b5f61145c600f83610fce565b915061146782611428565b602082019050919050565b5f6020820190508181035f83015261148981611450565b9050919050565b7f4e487b71000000000000000000000000000000000000000000000000000000005f52603260045260245ffd5b5f6060820190506114d05f830186611231565b6114dd602083018561115a565b6114ea604083018461115a565b949350505050565b5f6040820190506115055f83018561115a565b611512602083018461115a565b9392505050565b7f4e487b71000000000000000000000000000000000000000000000000000000005f52601160045260245ffd5b5f611550826110b6565b915061155b836110b6565b925082820190508082111561157357611572611519565b5b9291505056fea2646970667358221220c6f4465d5a877edc09ba6f544094ec5f81b13066c35df7e970825e33d14380f164736f6c634300081e0033","linkReferences":{}},"methodIdentifiers":{"allowance(address,address)":"dd62ed3e","approve(address,uint256)":"095ea7b3","balanceOf(address)":"70a08231","batchAirDrop(address[],uint256[])":"e6c35a91","cap()":"355274ea","decimals()":"313ce567","mint(address,uint256)":"40c10f19","name()":"06fdde03","owner()":"8da5cb5b","renounceOwnership()":"715018a6","symbol()":"95d89b41","totalSupply()":"18160ddd","transfer(address,uint256)":"a9059cbb","transferFrom(address,address,uint256)":"23b872dd","transferFromContract(address,uint256)":"1a88f306","transferOwnership(address)":"f2fde38b"},"id":44}