{"abi":[{"type":"constructor","inputs":[],"stateMutability":"nonpayable"},{"type":"function","name":"allowance","inputs":[{"name":"owner","type":"address","internalType":"address"},{"name":"spender","type":"address","internalType":"address"}],"outputs":[{"name":"","type":"uint256","internalType":"uint256"}],"stateMutability":"view"},{"type":"function","name":"approve","inputs":[{"name":"spender","type":"address","internalType":"address"},{"name":"value","type":"uint256","internalType":"uint256"}],"outputs":[{"name":"","type":"bool","internalType":"bool"}],"stateMutability":"nonpayable"},{"type":"function","name":"balanceOf","inputs":[{"name":"account","type":"address","internalType":"address"}],"outputs":[{"name":"","type":"uint256","internalType":"uint256"}],"stateMutability":"view"},{"type":"function","name":"batchAirDrop","inputs":[{"name":"recipients","type":"address[]","internalType":"address[]"},{"name":"amounts","type":"uint256[]","internalType":"uint256[]"}],"outputs":[],"stateMutability":"nonpayable"},{"type":"function","name":"cap","inputs":[],"outputs":[{"name":"","type":"uint256","internalType":"uint256"}],"stateMutability":"view"},{"type":"function","name":"decimals","inputs":[],"outputs":[{"name":"","type":"uint8","internalType":"uint8"}],"stateMutability":"view"},{"type":"function","name":"mint","inputs":[{"name":"to","type":"address","internalType":"address"},{"name":"amount","type":"uint256","internalType":"uint256"}],"outputs":[],"stateMutability":"nonpayable"},{"type":"function","name":"name","inputs":[],"outputs":[{"name":"","type":"string","internalType":"string"}],"stateMutability":"view"},{"type":"function","name":"owner","inputs":[],"outputs":[{"name":"","type":"address","internalType":"address"}],"stateMutability":"view"},{"type":"function","name":"renounceOwnership","inputs":[],"outputs":[],"stateMutability":"nonpayable"},{"type":"function","name":"symbol","inputs":[],"outputs":[{"name":"","type":"string","internalType":"string"}],"stateMutability":"view"},{"type":"function","name":"totalSupply","inputs":[],"outputs":[{"name":"","type":"uint256","internalType":"uint256"}],"stateMutability":"view"},{"type":"function","name":"transfer","inputs":[{"name":"to","type":"address","internalType":"address"},{"name":"value","type":"uint256","internalType":"uint256"}],"outputs":[{"name":"","type":"bool","internalType":"bool"}],"stateMutability":"nonpayable"},{"type":"function","name":"transferFrom","inputs":[{"name":"from","type":"address","internalType":"address"},{"name":"to","type":"address","internalType":"address"},{"name":"value","type":"uint256","internalType":"uint256"}],"outputs":[{"name":"","type":"bool","internalType":"bool"}],"stateMutability":"nonpayable"},{"type":"function","name":"transferFromContract","inputs":[{"name":"to","type":"address","internalType":"address"},{"name":"amount","type":"uint256","internalType":"uint256"}],"outputs":[],"stateMutability":"nonpayable"},{"type":"function","name":"transferOwnership","inputs":[{"name":"newOwner","type":"address","internalType":"address"}],"outputs":[],"stateMutability":"nonpayable"},{"type":"event","name":"Approval","inputs":[{"name":"owner","type":"address","indexed":true,"internalType":"address"},{"name":"spender","type":"address","indexed":true,"internalType":"address"},{"name":"value","type":"uint256","indexed":false,"internalType":"uint256"}],"anonymous":false},{"type":"event","name":"OwnershipTransferred","inputs":[{"name":"previousOwner","type":"address","indexed":true,"internalType":"address"},{"name":"newOwner","type":"address","indexed":true,"internalType":"address"}],"anonymous":false},{"type":"event","name":"Transfer","inputs":[{"name":"from","type":"address","indexed":true,"internalType":"address"},{"name":"to","type":"address","indexed":true,"internalType":"address"},{"name":"value","type":"uint256","indexed":false,"internalType":"uint256"}],"anonymous":false},{"type":"error","name":"ERC20ExceededCap","inputs":[{"name":"increasedSupply","type":"uint256","internalType":"uint256"},{"name":"cap","type":"uint256","internalType":"uint256"}]},{"type":"error","name":"ERC20InsufficientAllowance","inputs":[{"name":"spender","type":"address","internalType":"address"},{"name":"allowance","type":"uint256","internalType":"uint256"},{"name":"needed","type":"uint256","internalType":"uint256"}]},{"type":"error","name":"ERC20InsufficientBalance","inputs":[{"name":"sender","type":"address","internalType":"address"},{"name":"balance","type":"uint256","internalType":"uint256"},{"name":"needed","type":"uint256","internalType":"uint256"}]},{"type":"error","name":"ERC20InvalidApprover","inputs":[{"name":"approver","type":"address","internalType":"address"}]},{"type":"error","name":"ERC20InvalidCap","inputs":[{"name":"cap","type":"uint256","internalType":"uint256"}]},{"type":"error","name":"ERC20InvalidReceiver","inputs":[{"name":"receiver","type":"address","internalType":"address"}]},{"type":"error","name":"ERC20InvalidSender","inputs":[{"name":"sender","type":"address","internalType":"address"}]},{"type":"error","name":"ERC20InvalidSpender","inputs":[{"name":"spender","type":"address","internalType":"address"}]},{"type":"error","name":"OwnableInvalidOwner","inputs":[{"name":"owner","type":"address","internalType":"address"}]},{"type":"error","name":"OwnableUnauthorizedAccount","inputs":[{"name":"account","type":"address","internalType":"address"}]}],"bytecode":{"object":"0x60a060405234801561000f575f5ffd5b50336a084595161401484a0000006040518060400160405280600d81526020017f446553746f636b20546f6b656e000000000000000000000000000000000000008152506040518060400160405280600481526020017f4453544b0000000000000000000000000000000000000000000000000000000081525081600390816100989190610837565b5080600490816100a89190610837565b5050505f81036100ef575f6040517f392e1e270000000000000000000000000000000000000000000000000000000081526004016100e6919061093f565b60405180910390fd5b8060808181525050505f73ffffffffffffffffffffffffffffffffffffffff168173ffffffffffffffffffffffffffffffffffffffff1603610168575f6040517f1e4fbdf700000000000000000000000000000000000000000000000000000000815260040161015f9190610997565b60405180910390fd5b610177816101b460201b60201c565b506101af3061018a61027760201b60201c565b600a6101969190610b18565b624c4b406101a49190610b62565b61027f60201b60201c565b610c5a565b5f60055f9054906101000a900473ffffffffffffffffffffffffffffffffffffffff1690508160055f6101000a81548173ffffffffffffffffffffffffffffffffffffffff021916908373ffffffffffffffffffffffffffffffffffffffff1602179055508173ffffffffffffffffffffffffffffffffffffffff168173ffffffffffffffffffffffffffffffffffffffff167f8be0079c531659141344cd1fd0a4f28419497f9722a3daafe3b4186f6b6457e060405160405180910390a35050565b5f6012905090565b5f73ffffffffffffffffffffffffffffffffffffffff168273ffffffffffffffffffffffffffffffffffffffff16036102ef575f6040517fec442f050000000000000000000000000000000000000000000000000000000081526004016102e69190610997565b60405180910390fd5b6103005f838361030460201b60201c565b5050565b61031583838361031a60201b60201c565b505050565b61032b8383836103cf60201b60201c565b5f73ffffffffffffffffffffffffffffffffffffffff168373ffffffffffffffffffffffffffffffffffffffff16036103ca575f61036d6105e860201b60201c565b90505f61037e6105f160201b60201c565b9050818111156103c75780826040517f9e79f8540000000000000000000000000000000000000000000000000000000081526004016103be929190610bb2565b60405180910390fd5b50505b505050565b5f73ffffffffffffffffffffffffffffffffffffffff168373ffffffffffffffffffffffffffffffffffffffff160361041f578060025f8282546104139190610bd9565b925050819055506104ed565b5f5f5f8573ffffffffffffffffffffffffffffffffffffffff1673ffffffffffffffffffffffffffffffffffffffff1681526020019081526020015f20549050818110156104a8578381836040517fe450d38c00000000000000000000000000000000000000000000000000000000815260040161049f93929190610c0c565b60405180910390fd5b8181035f5f8673ffffffffffffffffffffffffffffffffffffffff1673ffffffffffffffffffffffffffffffffffffffff1681526020019081526020015f2081905550505b5f73ffffffffffffffffffffffffffffffffffffffff168273ffffffffffffffffffffffffffffffffffffffff1603610534578060025f828254039250508190555061057e565b805f5f8473ffffffffffffffffffffffffffffffffffffffff1673ffffffffffffffffffffffffffffffffffffffff1681526020019081526020015f205f82825401925050819055505b8173ffffffffffffffffffffffffffffffffffffffff168373ffffffffffffffffffffffffffffffffffffffff167fddf252ad1be2c89b69c2b068fc378daa952ba7f163c4a11628f55a4df523b3ef836040516105db9190610c41565b60405180910390a3505050565b5f608051905090565b5f600254905090565b5f81519050919050565b7f4e487b71000000000000000000000000000000000000000000000000000000005f52604160045260245ffd5b7f4e487b71000000000000000000000000000000000000000000000000000000005f52602260045260245ffd5b5f600282049050600182168061067557607f821691505b60208210810361068857610687610631565b5b50919050565b5f819050815f5260205f209050919050565b5f6020601f8301049050919050565b5f82821b905092915050565b5f600883026106ea7fffffffffffffffffffffffffffffffffffffffffffffffffffffffffffffffff826106af565b6106f486836106af565b95508019841693508086168417925050509392505050565b5f819050919050565b5f819050919050565b5f61073861073361072e8461070c565b610715565b61070c565b9050919050565b5f819050919050565b6107518361071e565b61076561075d8261073f565b8484546106bb565b825550505050565b5f5f905090565b61077c61076d565b610787818484610748565b505050565b5b818110156107aa5761079f5f82610774565b60018101905061078d565b5050565b601f8211156107ef576107c08161068e565b6107c9846106a0565b810160208510156107d8578190505b6107ec6107e4856106a0565b83018261078c565b50505b505050565b5f82821c905092915050565b5f61080f5f19846008026107f4565b1980831691505092915050565b5f6108278383610800565b9150826002028217905092915050565b610840826105fa565b67ffffffffffffffff81111561085957610858610604565b5b610863825461065e565b61086e8282856107ae565b5f60209050601f83116001811461089f575f841561088d578287015190505b610897858261081c565b8655506108fe565b601f1984166108ad8661068e565b5f5b828110156108d4578489015182556001820191506020850194506020810190506108af565b868310156108f157848901516108ed601f891682610800565b8355505b6001600288020188555050505b505050505050565b5f819050919050565b5f61092961092461091f84610906565b610715565b61070c565b9050919050565b6109398161090f565b82525050565b5f6020820190506109525f830184610930565b92915050565b5f73ffffffffffffffffffffffffffffffffffffffff82169050919050565b5f61098182610958565b9050919050565b61099181610977565b82525050565b5f6020820190506109aa5f830184610988565b92915050565b7f4e487b71000000000000000000000000000000000000000000000000000000005f52601160045260245ffd5b5f8160011c9050919050565b5f5f8291508390505b6001851115610a3257808604811115610a0e57610a0d6109b0565b5b6001851615610a1d5780820291505b8081029050610a2b856109dd565b94506109f2565b94509492505050565b5f82610a4a5760019050610b05565b81610a57575f9050610b05565b8160018114610a6d5760028114610a7757610aa6565b6001915050610b05565b60ff841115610a8957610a886109b0565b5b8360020a915084821115610aa057610a9f6109b0565b5b50610b05565b5060208310610133831016604e8410600b8410161715610adb5782820a905083811115610ad657610ad56109b0565b5b610b05565b610ae884848460016109e9565b92509050818404811115610aff57610afe6109b0565b5b81810290505b9392505050565b5f60ff82169050919050565b5f610b228261070c565b9150610b2d83610b0c565b9250610b5a7fffffffffffffffffffffffffffffffffffffffffffffffffffffffffffffffff8484610a3b565b905092915050565b5f610b6c8261070c565b9150610b778361070c565b9250828202610b858161070c565b91508282048414831517610b9c57610b9b6109b0565b5b5092915050565b610bac8161070c565b82525050565b5f604082019050610bc55f830185610ba3565b610bd26020830184610ba3565b9392505050565b5f610be38261070c565b9150610bee8361070c565b9250828201905080821115610c0657610c056109b0565b5b92915050565b5f606082019050610c1f5f830186610988565b610c2c6020830185610ba3565b610c396040830184610ba3565b949350505050565b5f602082019050610c545f830184610ba3565b92915050565b60805161153f610c725f395f61042b015261153f5ff3fe608060405234801561000f575f5ffd5b50600436106100fe575f3560e01c806370a0823111610095578063a9059cbb11610064578063a9059cbb14610288578063dd62ed3e146102b8578063e6c35a91146102e8578063f2fde38b14610304576100fe565b806370a0823114610212578063715018a6146102425780638da5cb5b1461024c57806395d89b411461026a576100fe565b806323b872dd116100d157806323b872dd1461018a578063313ce567146101ba578063355274ea146101d857806340c10f19146101f6576100fe565b806306fdde0314610102578063095ea7b31461012057806318160ddd146101505780631a88f3061461016e575b5f5ffd5b61010a610320565b6040516101179190610fc4565b60405180910390f35b61013a60048036038101906101359190611079565b6103b0565b60405161014791906110d1565b60405180910390f35b6101586103d2565b60405161016591906110f9565b60405180910390f35b61018860048036038101906101839190611079565b6103db565b005b6101a4600480360381019061019f9190611112565b6103f2565b6040516101b191906110d1565b60405180910390f35b6101c2610420565b6040516101cf919061117d565b60405180910390f35b6101e0610428565b6040516101ed91906110f9565b60405180910390f35b610210600480360381019061020b9190611079565b61044f565b005b61022c60048036038101906102279190611196565b610465565b60405161023991906110f9565b60405180910390f35b61024a6104aa565b005b6102546104bd565b60405161026191906111d0565b60405180910390f35b6102726104e5565b60405161027f9190610fc4565b60405180910390f35b6102a2600480360381019061029d9190611079565b610575565b6040516102af91906110d1565b60405180910390f35b6102d260048036038101906102cd91906111e9565b610597565b6040516102df91906110f9565b60405180910390f35b61030260048036038101906102fd91906112dd565b610619565b005b61031e60048036038101906103199190611196565b6106d0565b005b60606003805461032f90611388565b80601f016020809104026020016040519081016040528092919081815260200182805461035b90611388565b80156103a65780601f1061037d576101008083540402835291602001916103a6565b820191905f5260205f20905b81548152906001019060200180831161038957829003601f168201915b5050505050905090565b5f5f6103ba610754565b90506103c781858561075b565b600191505092915050565b5f600254905090565b6103e361076d565b6103ee3083836107f4565b5050565b5f5f6103fc610754565b90506104098582856108e4565b6104148585856107f4565b60019150509392505050565b5f6012905090565b5f7f0000000000000000000000000000000000000000000000000000000000000000905090565b61045761076d565b6104618282610977565b5050565b5f5f5f8373ffffffffffffffffffffffffffffffffffffffff1673ffffffffffffffffffffffffffffffffffffffff1681526020019081526020015f20549050919050565b6104b261076d565b6104bb5f6109f6565b565b5f60055f9054906101000a900473ffffffffffffffffffffffffffffffffffffffff16905090565b6060600480546104f490611388565b80601f016020809104026020016040519081016040528092919081815260200182805461052090611388565b801561056b5780601f106105425761010080835404028352916020019161056b565b820191905f5260205f20905b81548152906001019060200180831161054e57829003601f168201915b5050505050905090565b5f5f61057f610754565b905061058c8185856107f4565b600191505092915050565b5f60015f8473ffffffffffffffffffffffffffffffffffffffff1673ffffffffffffffffffffffffffffffffffffffff1681526020019081526020015f205f8373ffffffffffffffffffffffffffffffffffffffff1673ffffffffffffffffffffffffffffffffffffffff1681526020019081526020015f2054905092915050565b818190508484905014610661576040517f08c379a000000000000000000000000000000000000000000000000000000000815260040161065890611402565b60405180910390fd5b5f5f90505b848490508110156106c9576106bc3086868481811061068857610687611420565b5b905060200201602081019061069d9190611196565b8585858181106106b0576106af611420565b5b905060200201356107f4565b8080600101915050610666565b5050505050565b6106d861076d565b5f73ffffffffffffffffffffffffffffffffffffffff168173ffffffffffffffffffffffffffffffffffffffff1603610748575f6040517f1e4fbdf700000000000000000000000000000000000000000000000000000000815260040161073f91906111d0565b60405180910390fd5b610751816109f6565b50565b5f33905090565b6107688383836001610ab9565b505050565b610775610754565b73ffffffffffffffffffffffffffffffffffffffff166107936104bd565b73ffffffffffffffffffffffffffffffffffffffff16146107f2576107b6610754565b6040517f118cdaa70000000000000000000000000000000000000000000000000000000081526004016107e991906111d0565b60405180910390fd5b565b5f73ffffffffffffffffffffffffffffffffffffffff168373ffffffffffffffffffffffffffffffffffffffff1603610864575f6040517f96c6fd1e00000000000000000000000000000000000000000000000000000000815260040161085b91906111d0565b60405180910390fd5b5f73ffffffffffffffffffffffffffffffffffffffff168273ffffffffffffffffffffffffffffffffffffffff16036108d4575f6040517fec442f050000000000000000000000000000000000000000000000000000000081526004016108cb91906111d0565b60405180910390fd5b6108df838383610c88565b505050565b5f6108ef8484610597565b90507fffffffffffffffffffffffffffffffffffffffffffffffffffffffffffffffff8110156109715781811015610962578281836040517ffb8f41b20000000000000000000000000000000000000000000000000000000081526004016109599392919061144d565b60405180910390fd5b61097084848484035f610ab9565b5b50505050565b5f73ffffffffffffffffffffffffffffffffffffffff168273ffffffffffffffffffffffffffffffffffffffff16036109e7575f6040517fec442f050000000000000000000000000000000000000000000000000000000081526004016109de91906111d0565b60405180910390fd5b6109f25f8383610c88565b5050565b5f60055f9054906101000a900473ffffffffffffffffffffffffffffffffffffffff1690508160055f6101000a81548173ffffffffffffffffffffffffffffffffffffffff021916908373ffffffffffffffffffffffffffffffffffffffff1602179055508173ffffffffffffffffffffffffffffffffffffffff168173ffffffffffffffffffffffffffffffffffffffff167f8be0079c531659141344cd1fd0a4f28419497f9722a3daafe3b4186f6b6457e060405160405180910390a35050565b5f73ffffffffffffffffffffffffffffffffffffffff168473ffffffffffffffffffffffffffffffffffffffff1603610b29575f6040517fe602df05000000000000000000000000000000000000000000000000000000008152600401610b2091906111d0565b60405180910390fd5b5f73ffffffffffffffffffffffffffffffffffffffff168373ffffffffffffffffffffffffffffffffffffffff1603610b99575f6040517f94280d62000000000000000000000000000000000000000000000000000000008152600401610b9091906111d0565b60405180910390fd5b8160015f8673ffffffffffffffffffffffffffffffffffffffff1673ffffffffffffffffffffffffffffffffffffffff1681526020019081526020015f205f8573ffffffffffffffffffffffffffffffffffffffff1673ffffffffffffffffffffffffffffffffffffffff1681526020019081526020015f20819055508015610c82578273ffffffffffffffffffffffffffffffffffffffff168473ffffffffffffffffffffffffffffffffffffffff167f8c5be1e5ebec7d5bd14f71427d1e84f3dd0314c0f7b2291e5b200ac8c7c3b92584604051610c7991906110f9565b60405180910390a35b50505050565b610c93838383610c98565b505050565b610ca3838383610d3b565b5f73ffffffffffffffffffffffffffffffffffffffff168373ffffffffffffffffffffffffffffffffffffffff1603610d36575f610cdf610428565b90505f610cea6103d2565b905081811115610d335780826040517f9e79f854000000000000000000000000000000000000000000000000000000008152600401610d2a929190611482565b60405180910390fd5b50505b505050565b5f73ffffffffffffffffffffffffffffffffffffffff168373ffffffffffffffffffffffffffffffffffffffff1603610d8b578060025f828254610d7f91906114d6565b92505081905550610e59565b5f5f5f8573ffffffffffffffffffffffffffffffffffffffff1673ffffffffffffffffffffffffffffffffffffffff1681526020019081526020015f2054905081811015610e14578381836040517fe450d38c000000000000000000000000000000000000000000000000000000008152600401610e0b9392919061144d565b60405180910390fd5b8181035f5f8673ffffffffffffffffffffffffffffffffffffffff1673ffffffffffffffffffffffffffffffffffffffff1681526020019081526020015f2081905550505b5f73ffffffffffffffffffffffffffffffffffffffff168273ffffffffffffffffffffffffffffffffffffffff1603610ea0578060025f8282540392505081905550610eea565b805f5f8473ffffffffffffffffffffffffffffffffffffffff1673ffffffffffffffffffffffffffffffffffffffff1681526020019081526020015f205f82825401925050819055505b8173ffffffffffffffffffffffffffffffffffffffff168373ffffffffffffffffffffffffffffffffffffffff167fddf252ad1be2c89b69c2b068fc378daa952ba7f163c4a11628f55a4df523b3ef83604051610f4791906110f9565b60405180910390a3505050565b5f81519050919050565b5f82825260208201905092915050565b8281835e5f83830152505050565b5f601f19601f8301169050919050565b5f610f9682610f54565b610fa08185610f5e565b9350610fb0818560208601610f6e565b610fb981610f7c565b840191505092915050565b5f6020820190508181035f830152610fdc8184610f8c565b905092915050565b5f5ffd5b5f5ffd5b5f73ffffffffffffffffffffffffffffffffffffffff82169050919050565b5f61101582610fec565b9050919050565b6110258161100b565b811461102f575f5ffd5b50565b5f813590506110408161101c565b92915050565b5f819050919050565b61105881611046565b8114611062575f5ffd5b50565b5f813590506110738161104f565b92915050565b5f5f6040838503121561108f5761108e610fe4565b5b5f61109c85828601611032565b92505060206110ad85828601611065565b9150509250929050565b5f8115159050919050565b6110cb816110b7565b82525050565b5f6020820190506110e45f8301846110c2565b92915050565b6110f381611046565b82525050565b5f60208201905061110c5f8301846110ea565b92915050565b5f5f5f6060848603121561112957611128610fe4565b5b5f61113686828701611032565b935050602061114786828701611032565b925050604061115886828701611065565b9150509250925092565b5f60ff82169050919050565b61117781611162565b82525050565b5f6020820190506111905f83018461116e565b92915050565b5f602082840312156111ab576111aa610fe4565b5b5f6111b884828501611032565b91505092915050565b6111ca8161100b565b82525050565b5f6020820190506111e35f8301846111c1565b92915050565b5f5f604083850312156111ff576111fe610fe4565b5b5f61120c85828601611032565b925050602061121d85828601611032565b9150509250929050565b5f5ffd5b5f5ffd5b5f5ffd5b5f5f83601f84011261124857611247611227565b5b8235905067ffffffffffffffff8111156112655761126461122b565b5b6020830191508360208202830111156112815761128061122f565b5b9250929050565b5f5f83601f84011261129d5761129c611227565b5b8235905067ffffffffffffffff8111156112ba576112b961122b565b5b6020830191508360208202830111156112d6576112d561122f565b5b9250929050565b5f5f5f5f604085870312156112f5576112f4610fe4565b5b5f85013567ffffffffffffffff81111561131257611311610fe8565b5b61131e87828801611233565b9450945050602085013567ffffffffffffffff81111561134157611340610fe8565b5b61134d87828801611288565b925092505092959194509250565b7f4e487b71000000000000000000000000000000000000000000000000000000005f52602260045260245ffd5b5f600282049050600182168061139f57607f821691505b6020821081036113b2576113b161135b565b5b50919050565b7f4c656e677468206d69736d6174636800000000000000000000000000000000005f82015250565b5f6113ec600f83610f5e565b91506113f7826113b8565b602082019050919050565b5f6020820190508181035f830152611419816113e0565b9050919050565b7f4e487b71000000000000000000000000000000000000000000000000000000005f52603260045260245ffd5b5f6060820190506114605f8301866111c1565b61146d60208301856110ea565b61147a60408301846110ea565b949350505050565b5f6040820190506114955f8301856110ea565b6114a260208301846110ea565b9392505050565b7f4e487b71000000000000000000000000000000000000000000000000000000005f52601160045260245ffd5b5f6114e082611046565b91506114eb83611046565b9250828201905080821115611503576115026114a9565b5b9291505056fea2646970667358221220b45ce4d8802baaf0d205cce2947e8ad7615c9eea4aeea3d6e183b158fd7e0bbf64736f6c634300081e0033","linkReferences":{}},"methodIdentifiers":{"allowance(address,address)":"dd62ed3e","approve(address,uint256)":"095ea7b3","balanceOf(address)":"70a08231","batchAirDrop(address[],uint256[])":"e6c35a91","cap()":"355274ea","decimals()":"313ce567","mint(address,uint256)":"40c10f19","name()":"06fdde03","owner()":"8da5cb5b","renounceOwnership()":"715018a6","symbol()":"95d89b41","totalSupply()":"18160ddd","transfer(address,uint256)":"a9059cbb","transferFrom(address,address,uint256)":"23b872dd","transferFromContract(address,uint256)":"1a88f306","transferOwnership(address)":"f2fde38b"},"id":43}