{"abi":[{"type":"constructor","inputs":[{"name":"_destockTokenAddress","type":"address","internalType":"address"},{"name":"initialOwner","type":"address","internalType":"address"}],"stateMutability":"nonpayable"},{"type":"function","name":"REGISTRATION_FEE","inputs":[],"outputs":[{"name":"","type":"uint256","internalType":"uint256"}],"stateMutability":"view"},{"type":"function","name":"balanceOf","inputs":[{"name":"account","type":"address","internalType":"address"},{"name":"id","type":"uint256","internalType":"uint256"}],"outputs":[{"name":"","type":"uint256","internalType":"uint256"}],"stateMutability":"view"},{"type":"function","name":"balanceOfBatch","inputs":[{"name":"accounts","type":"address[]","internalType":"address[]"},{"name":"ids","type":"uint256[]","internalType":"uint256[]"}],"outputs":[{"name":"","type":"uint256[]","internalType":"uint256[]"}],"stateMutability":"view"},{"type":"function","name":"buyShares","inputs":[{"name":"companyId","type":"uint256","internalType":"uint256"},{"name":"amount","type":"uint256","internalType":"uint256"}],"outputs":[],"stateMutability":"nonpayable"},{"type":"function","name":"companies","inputs":[{"name":"","type":"uint256","internalType":"uint256"}],"outputs":[{"name":"id","type":"uint256","internalType":"uint256"},{"name":"name","type":"string","internalType":"string"},{"name":"owner","type":"address","internalType":"address"},{"name":"initialPrice","type":"uint256","internalType":"uint256"},{"name":"totalSupply","type":"uint256","internalType":"uint256"}],"stateMutability":"view"},{"type":"function","name":"destockToken","inputs":[],"outputs":[{"name":"","type":"address","internalType":"contract IERC20"}],"stateMutability":"view"},{"type":"function","name":"getSharePrice","inputs":[{"name":"companyId","type":"uint256","internalType":"uint256"}],"outputs":[{"name":"","type":"uint256","internalType":"uint256"}],"stateMutability":"view"},{"type":"function","name":"isApprovedForAll","inputs":[{"name":"account","type":"address","internalType":"address"},{"name":"operator","type":"address","internalType":"address"}],"outputs":[{"name":"","type":"bool","internalType":"bool"}],"stateMutability":"view"},{"type":"function","name":"liquidityPools","inputs":[{"name":"","type":"uint256","internalType":"uint256"}],"outputs":[{"name":"tokenReserve","type":"uint256","internalType":"uint256"},{"name":"shareReserve","type":"uint256","internalType":"uint256"}],"stateMutability":"view"},{"type":"function","name":"nextCompanyId","inputs":[],"outputs":[{"name":"","type":"uint256","internalType":"uint256"}],"stateMutability":"view"},{"type":"function","name":"owner","inputs":[],"outputs":[{"name":"","type":"address","internalType":"address"}],"stateMutability":"view"},{"type":"function","name":"registerCompany","inputs":[{"name":"name","type":"string","internalType":"string"},{"name":"initialPrice","type":"uint256","internalType":"uint256"},{"name":"totalSupply","type":"uint256","internalType":"uint256"}],"outputs":[],"stateMutability":"nonpayable"},{"type":"function","name":"renounceOwnership","inputs":[],"outputs":[],"stateMutability":"nonpayable"},{"type":"function","name":"safeBatchTransferFrom","inputs":[{"name":"from","type":"address","internalType":"address"},{"name":"to","type":"address","internalType":"address"},{"name":"ids","type":"uint256[]","internalType":"uint256[]"},{"name":"values","type":"uint256[]","internalType":"uint256[]"},{"name":"data","type":"bytes","internalType":"bytes"}],"outputs":[],"stateMutability":"nonpayable"},{"type":"function","name":"safeTransferFrom","inputs":[{"name":"from","type":"address","internalType":"address"},{"name":"to","type":"address","internalType":"address"},{"name":"id","type":"uint256","internalType":"uint256"},{"name":"value","type":"uint256","internalType":"uint256"},{"name":"data","type":"bytes","internalType":"bytes"}],"outputs":[],"stateMutability":"nonpayable"},{"type":"function","name":"sellShares","inputs":[{"name":"companyId","type":"uint256","internalType":"uint256"},{"name":"amount","type":"uint256","internalType":"uint256"}],"outputs":[],"stateMutability":"nonpayable"},{"type":"function","name":"setApprovalForAll","inputs":[{"name":"operator","type":"address","internalType":"address"},{"name":"approved","type":"bool","internalType":"bool"}],"outputs":[],"stateMutability":"nonpayable"},{"type":"function","name":"supportsInterface","inputs":[{"name":"interfaceId","type":"bytes4","internalType":"bytes4"}],"outputs":[{"name":"","type":"bool","internalType":"bool"}],"stateMutability":"view"},{"type":"function","name":"transferOwnership","inputs":[{"name":"newOwner","type":"address","internalType":"address"}],"outputs":[],"stateMutability":"nonpayable"},{"type":"function","name":"uri","inputs":[{"name":"","type":"uint256","internalType":"uint256"}],"outputs":[{"name":"","type":"string","internalType":"string"}],"stateMutability":"view"},{"type":"function","name":"withdrawFees","inputs":[],"outputs":[],"stateMutability":"nonpayable"},{"type":"event","name":"ApprovalForAll","inputs":[{"name":"account","type":"address","indexed":true,"internalType":"address"},{"name":"operator","type":"address","indexed":true,"internalType":"address"},{"name":"approved","type":"bool","indexed":false,"internalType":"bool"}],"anonymous":false},{"type":"event","name":"CompanyRegistered","inputs":[{"name":"companyId","type":"uint256","indexed":true,"internalType":"uint256"},{"name":"name","type":"string","indexed":false,"internalType":"string"},{"name":"owner","type":"address","indexed":true,"internalType":"address"},{"name":"initialPrice","type":"uint256","indexed":false,"internalType":"uint256"},{"name":"totalSupply","type":"uint256","indexed":false,"internalType":"uint256"}],"anonymous":false},{"type":"event","name":"OwnershipTransferred","inputs":[{"name":"previousOwner","type":"address","indexed":true,"internalType":"address"},{"name":"newOwner","type":"address","indexed":true,"internalType":"address"}],"anonymous":false},{"type":"event","name":"SharesPurchased","inputs":[{"name":"companyId","type":"uint256","indexed":true,"internalType":"uint256"},{"name":"buyer","type":"address","indexed":true,"internalType":"address"},{"name":"amount","type":"uint256","indexed":false,"internalType":"uint256"},{"name":"cost","type":"uint256","indexed":false,"internalType":"uint256"}],"anonymous":false},{"type":"event","name":"SharesSold","inputs":[{"name":"companyId","type":"uint256","indexed":true,"internalType":"uint256"},{"name":"seller","type":"address","indexed":true,"internalType":"address"},{"name":"amount","type":"uint256","indexed":false,"internalType":"uint256"},{"name":"proceeds","type":"uint256","indexed":false,"internalType":"uint256"}],"anonymous":false},{"type":"event","name":"TransferBatch","inputs":[{"name":"operator","type":"address","indexed":true,"internalType":"address"},{"name":"from","type":"address","indexed":true,"internalType":"address"},{"name":"to","type":"address","indexed":true,"internalType":"address"},{"name":"ids","type":"uint256[]","indexed":false,"internalType":"uint256[]"},{"name":"values","type":"uint256[]","indexed":false,"internalType":"uint256[]"}],"anonymous":false},{"type":"event","name":"TransferSingle","inputs":[{"name":"operator","type":"address","indexed":true,"internalType":"address"},{"name":"from","type":"address","indexed":true,"internalType":"address"},{"name":"to","type":"address","indexed":true,"internalType":"address"},{"name":"id","type":"uint256","indexed":false,"internalType":"uint256"},{"name":"value","type":"uint256","indexed":false,"internalType":"uint256"}],"anonymous":false},{"type":"event","name":"URI","inputs":[{"name":"value","type":"string","indexed":false,"internalType":"string"},{"name":"id","type":"uint256","indexed":true,"internalType":"uint256"}],"anonymous":false},{"type":"error","name":"ERC1155InsufficientBalance","inputs":[{"name":"sender","type":"address","internalType":"address"},{"name":"balance","type":"uint256","internalType":"uint256"},{"name":"needed","type":"uint256","internalType":"uint256"},{"name":"tokenId","type":"uint256","internalType":"uint256"}]},{"type":"error","name":"ERC1155InvalidApprover","inputs":[{"name":"approver","type":"address","internalType":"address"}]},{"type":"error","name":"ERC1155InvalidArrayLength","inputs":[{"name":"idsLength","type":"uint256","internalType":"uint256"},{"name":"valuesLength","type":"uint256","internalType":"uint256"}]},{"type":"error","name":"ERC1155InvalidOperator","inputs":[{"name":"operator","type":"address","internalType":"address"}]},{"type":"error","name":"ERC1155InvalidReceiver","inputs":[{"name":"receiver","type":"address","internalType":"address"}]},{"type":"error","name":"ERC1155InvalidSender","inputs":[{"name":"sender","type":"address","internalType":"address"}]},{"type":"error","name":"ERC1155MissingApprovalForAll","inputs":[{"name":"operator","type":"address","internalType":"address"},{"name":"owner","type":"address","internalType":"address"}]},{"type":"error","name":"OwnableInvalidOwner","inputs":[{"name":"owner","type":"address","internalType":"address"}]},{"type":"error","name":"OwnableUnauthorizedAccount","inputs":[{"name":"account","type":"address","internalType":"address"}]}],"bytecode":{"object":"0x60a060405234801561000f575f5ffd5b50604051613e00380380613e0083398181016040528101906100319190610240565b8060405180602001604052805f8152506100508161010c60201b60201c565b505f73ffffffffffffffffffffffffffffffffffffffff168173ffffffffffffffffffffffffffffffffffffffff16036100c1575f6040517f1e4fbdf70000000000000000000000000000000000000000000000000000000081526004016100b8919061028d565b60405180910390fd5b6100d08161011f60201b60201c565b508173ffffffffffffffffffffffffffffffffffffffff1660808173ffffffffffffffffffffffffffffffffffffffff168152505050506105b2565b806002908161011b91906104e3565b5050565b5f60035f9054906101000a900473ffffffffffffffffffffffffffffffffffffffff1690508160035f6101000a81548173ffffffffffffffffffffffffffffffffffffffff021916908373ffffffffffffffffffffffffffffffffffffffff1602179055508173ffffffffffffffffffffffffffffffffffffffff168173ffffffffffffffffffffffffffffffffffffffff167f8be0079c531659141344cd1fd0a4f28419497f9722a3daafe3b4186f6b6457e060405160405180910390a35050565b5f5ffd5b5f73ffffffffffffffffffffffffffffffffffffffff82169050919050565b5f61020f826101e6565b9050919050565b61021f81610205565b8114610229575f5ffd5b50565b5f8151905061023a81610216565b92915050565b5f5f60408385031215610256576102556101e2565b5b5f6102638582860161022c565b92505060206102748582860161022c565b9150509250929050565b61028781610205565b82525050565b5f6020820190506102a05f83018461027e565b92915050565b5f81519050919050565b7f4e487b71000000000000000000000000000000000000000000000000000000005f52604160045260245ffd5b7f4e487b71000000000000000000000000000000000000000000000000000000005f52602260045260245ffd5b5f600282049050600182168061032157607f821691505b602082108103610334576103336102dd565b5b50919050565b5f819050815f5260205f209050919050565b5f6020601f8301049050919050565b5f82821b905092915050565b5f600883026103967fffffffffffffffffffffffffffffffffffffffffffffffffffffffffffffffff8261035b565b6103a0868361035b565b95508019841693508086168417925050509392505050565b5f819050919050565b5f819050919050565b5f6103e46103df6103da846103b8565b6103c1565b6103b8565b9050919050565b5f819050919050565b6103fd836103ca565b610411610409826103eb565b848454610367565b825550505050565b5f5f905090565b610428610419565b6104338184846103f4565b505050565b5b818110156104565761044b5f82610420565b600181019050610439565b5050565b601f82111561049b5761046c8161033a565b6104758461034c565b81016020851015610484578190505b6104986104908561034c565b830182610438565b50505b505050565b5f82821c905092915050565b5f6104bb5f19846008026104a0565b1980831691505092915050565b5f6104d383836104ac565b9150826002028217905092915050565b6104ec826102a6565b67ffffffffffffffff811115610505576105046102b0565b5b61050f825461030a565b61051a82828561045a565b5f60209050601f83116001811461054b575f8415610539578287015190505b61054385826104c8565b8655506105aa565b601f1984166105598661033a565b5f5b828110156105805784890151825560018201915060208501945060208101905061055b565b8683101561059d5784890151610599601f8916826104ac565b8355505b6001600288020188555050505b505050505050565b6080516138136105ed5f395f818161068f015281816109480152818161097501528181610a5101528181610d0301526110e201526138135ff3fe608060405234801561000f575f5ffd5b5060043610610134575f3560e01c8063715018a6116100b6578063bca7d4e11161007a578063bca7d4e11461033b578063beebc5da1461036b578063d8d3c82914610387578063e985e9c5146103a5578063f242432a146103d5578063f2fde38b146103f157610134565b8063715018a6146102aa57806379d747be146102b45780638da5cb5b146102e5578063a22cb46514610303578063ba8c85ae1461031f57610134565b80632eb2c2d6116100fd5780632eb2c2d61461021857806343ae8a6514610234578063476343ee146102525780634e1273f41461025c57806364b4f7511461028c57610134565b8062fdd58e1461013857806301ffc9a7146101685780630e89341c146101985780632279a970146101c85780632813d19d146101e4575b5f5ffd5b610152600480360381019061014d919061233e565b61040d565b60405161015f919061238b565b60405180910390f35b610182600480360381019061017d91906123f9565b610462565b60405161018f919061243e565b60405180910390f35b6101b260048036038101906101ad9190612457565b610473565b6040516101bf91906124f2565b60405180910390f35b6101e260048036038101906101dd9190612512565b610505565b005b6101fe60048036038101906101f99190612457565b6107c8565b60405161020f95949392919061255f565b60405180910390f35b610232600480360381019061022d91906127a7565b61089f565b005b61023c610946565b60405161024991906128cd565b60405180910390f35b61025a61096a565b005b610276600480360381019061027191906129a6565b610af5565b6040516102839190612ad3565b60405180910390f35b610294610bff565b6040516102a1919061238b565b60405180910390f35b6102b2610c0c565b005b6102ce60048036038101906102c99190612457565b610c1f565b6040516102dc929190612af3565b60405180910390f35b6102ed610c3f565b6040516102fa9190612b1a565b60405180910390f35b61031d60048036038101906103189190612b5d565b610c67565b005b61033960048036038101906103349190612bf4565b610c7d565b005b61035560048036038101906103509190612457565b610f89565b604051610362919061238b565b60405180910390f35b61038560048036038101906103809190612512565b610fe2565b005b61038f61125b565b60405161039c919061238b565b60405180910390f35b6103bf60048036038101906103ba9190612c65565b611261565b6040516103cc919061243e565b60405180910390f35b6103ef60048036038101906103ea9190612ca3565b6112ef565b005b61040b60048036038101906104069190612d36565b611396565b005b5f5f5f8381526020019081526020015f205f8473ffffffffffffffffffffffffffffffffffffffff1673ffffffffffffffffffffffffffffffffffffffff1681526020019081526020015f2054905092915050565b5f61046c8261141a565b9050919050565b60606002805461048290612d8e565b80601f01602080910402602001604051908101604052809291908181526020018280546104ae90612d8e565b80156104f95780601f106104d0576101008083540402835291602001916104f9565b820191905f5260205f20905b8154815290600101906020018083116104dc57829003601f168201915b50505050509050919050565b5f8111610547576040517f08c379a000000000000000000000000000000000000000000000000000000000815260040161053e90612e08565b60405180910390fd5b5f60055f8481526020019081526020015f2090505f73ffffffffffffffffffffffffffffffffffffffff16816002015f9054906101000a900473ffffffffffffffffffffffffffffffffffffffff1673ffffffffffffffffffffffffffffffffffffffff16036105ec576040517f08c379a00000000000000000000000000000000000000000000000000000000081526004016105e390612e70565b60405180910390fd5b816105f7338561040d565b1015610638576040517f08c379a000000000000000000000000000000000000000000000000000000000815260040161062f90612efe565b60405180910390fd5b5f8261064385610f89565b61064d9190612f49565b905061068d33836002015f9054906101000a900473ffffffffffffffffffffffffffffffffffffffff16868660405180602001604052805f8152506114fb565b7f000000000000000000000000000000000000000000000000000000000000000073ffffffffffffffffffffffffffffffffffffffff1663a9059cbb33836040518363ffffffff1660e01b81526004016106e8929190612f8a565b6020604051808303815f875af1158015610704573d5f5f3e3d5ffd5b505050506040513d601f19601f820116820180604052508101906107289190612fc5565b505f60065f8681526020019081526020015f20905081815f015f82825461074f9190612ff0565b9250508190555083816001015f8282546107699190613023565b925050819055503373ffffffffffffffffffffffffffffffffffffffff16857fc84ba642853b7fceb52ece6998aa2618edc77f7a182996141f2a470af347cea386856040516107b9929190612af3565b60405180910390a35050505050565b6005602052805f5260405f205f91509050805f0154908060010180546107ed90612d8e565b80601f016020809104026020016040519081016040528092919081815260200182805461081990612d8e565b80156108645780601f1061083b57610100808354040283529160200191610864565b820191905f5260205f20905b81548152906001019060200180831161084757829003601f168201915b505050505090806002015f9054906101000a900473ffffffffffffffffffffffffffffffffffffffff16908060030154908060040154905085565b5f6108a8611601565b90508073ffffffffffffffffffffffffffffffffffffffff168673ffffffffffffffffffffffffffffffffffffffff16141580156108ed57506108eb8682611261565b155b156109315780866040517fe237d922000000000000000000000000000000000000000000000000000000008152600401610928929190613056565b60405180910390fd5b61093e8686868686611608565b505050505050565b7f000000000000000000000000000000000000000000000000000000000000000081565b6109726116fc565b5f7f000000000000000000000000000000000000000000000000000000000000000073ffffffffffffffffffffffffffffffffffffffff166370a08231306040518263ffffffff1660e01b81526004016109cc9190612b1a565b602060405180830381865afa1580156109e7573d5f5f3e3d5ffd5b505050506040513d601f19601f82011682018060405250810190610a0b9190613091565b90505f8111610a4f576040517f08c379a0000000000000000000000000000000000000000000000000000000008152600401610a4690613106565b60405180910390fd5b7f000000000000000000000000000000000000000000000000000000000000000073ffffffffffffffffffffffffffffffffffffffff1663a9059cbb610a93610c3f565b836040518363ffffffff1660e01b8152600401610ab1929190612f8a565b6020604051808303815f875af1158015610acd573d5f5f3e3d5ffd5b505050506040513d601f19601f82011682018060405250810190610af19190612fc5565b5050565b60608151835114610b4157815183516040517f5b059991000000000000000000000000000000000000000000000000000000008152600401610b38929190612af3565b60405180910390fd5b5f835167ffffffffffffffff811115610b5d57610b5c6125bb565b5b604051908082528060200260200182016040528015610b8b5781602001602082028036833780820191505090505b5090505f5f90505b8451811015610bf457610bca610bb2828761178390919063ffffffff16565b610bc5838761179690919063ffffffff16565b61040d565b828281518110610bdd57610bdc613124565b5b602002602001018181525050806001019050610b93565b508091505092915050565b68056bc75e2d6310000081565b610c146116fc565b610c1d5f6117a9565b565b6006602052805f5260405f205f91509050805f0154908060010154905082565b5f60035f9054906101000a900473ffffffffffffffffffffffffffffffffffffffff16905090565b610c79610c72611601565b838361186c565b5050565b5f8111610cbf576040517f08c379a0000000000000000000000000000000000000000000000000000000008152600401610cb6906131c1565b60405180910390fd5b5f8211610d01576040517f08c379a0000000000000000000000000000000000000000000000000000000008152600401610cf89061324f565b60405180910390fd5b7f000000000000000000000000000000000000000000000000000000000000000073ffffffffffffffffffffffffffffffffffffffff166323b872dd333068056bc75e2d631000006040518463ffffffff1660e01b8152600401610d679392919061326d565b6020604051808303815f875af1158015610d83573d5f5f3e3d5ffd5b505050506040513d601f19601f82011682018060405250810190610da79190612fc5565b505f60045f815480929190610dbb906132a2565b9190505590506040518060a0016040528082815260200186868080601f0160208091040260200160405190810160405280939291908181526020018383808284375f81840152601f19601f8201169050808301925050505050505081526020013373ffffffffffffffffffffffffffffffffffffffff1681526020018481526020018381525060055f8381526020019081526020015f205f820151815f01556020820151816001019081610e6f9190613480565b506040820151816002015f6101000a81548173ffffffffffffffffffffffffffffffffffffffff021916908373ffffffffffffffffffffffffffffffffffffffff1602179055506060820151816003015560808201518160040155905050610ee733828460405180602001604052805f8152506119d5565b60405180604001604052808385610efe9190612f49565b81526020018381525060065f8381526020019081526020015f205f820151815f0155602082015181600101559050503373ffffffffffffffffffffffffffffffffffffffff16817fd18ed7372ca716f65c7aa7210c949f7c9d0fcd04e19a21e9f542d064ea64151087878787604051610f7a949392919061357b565b60405180910390a35050505050565b5f5f60065f8481526020019081526020015f2090505f816001015403610fc65760055f8481526020019081526020015f2060030154915050610fdd565b8060010154815f0154610fd991906135e6565b9150505b919050565b5f8111611024576040517f08c379a000000000000000000000000000000000000000000000000000000000815260040161101b90612e08565b60405180910390fd5b5f60055f8481526020019081526020015f2090505f73ffffffffffffffffffffffffffffffffffffffff16816002015f9054906101000a900473ffffffffffffffffffffffffffffffffffffffff1673ffffffffffffffffffffffffffffffffffffffff16036110c9576040517f08c379a00000000000000000000000000000000000000000000000000000000081526004016110c090612e70565b60405180910390fd5b5f826110d485610f89565b6110de9190612f49565b90507f000000000000000000000000000000000000000000000000000000000000000073ffffffffffffffffffffffffffffffffffffffff166323b872dd3330846040518463ffffffff1660e01b815260040161113d9392919061326d565b6020604051808303815f875af1158015611159573d5f5f3e3d5ffd5b505050506040513d601f19601f8201168201806040525081019061117d9190612fc5565b506111bc826002015f9054906101000a900473ffffffffffffffffffffffffffffffffffffffff1633868660405180602001604052805f8152506114fb565b5f60065f8681526020019081526020015f20905081815f015f8282546111e29190613023565b9250508190555083816001015f8282546111fc9190612ff0565b925050819055503373ffffffffffffffffffffffffffffffffffffffff16857fce81571c08c76465bdf390ad1abe80af8c51c6c4566e3485f9395f13d5ad6328868560405161124c929190612af3565b60405180910390a35050505050565b60045481565b5f60015f8473ffffffffffffffffffffffffffffffffffffffff1673ffffffffffffffffffffffffffffffffffffffff1681526020019081526020015f205f8373ffffffffffffffffffffffffffffffffffffffff1673ffffffffffffffffffffffffffffffffffffffff1681526020019081526020015f205f9054906101000a900460ff16905092915050565b5f6112f8611601565b90508073ffffffffffffffffffffffffffffffffffffffff168673ffffffffffffffffffffffffffffffffffffffff161415801561133d575061133b8682611261565b155b156113815780866040517fe237d922000000000000000000000000000000000000000000000000000000008152600401611378929190613056565b60405180910390fd5b61138e86868686866114fb565b505050505050565b61139e6116fc565b5f73ffffffffffffffffffffffffffffffffffffffff168173ffffffffffffffffffffffffffffffffffffffff160361140e575f6040517f1e4fbdf70000000000000000000000000000000000000000000000000000000081526004016114059190612b1a565b60405180910390fd5b611417816117a9565b50565b5f7fd9b67a26000000000000000000000000000000000000000000000000000000007bffffffffffffffffffffffffffffffffffffffffffffffffffffffff1916827bffffffffffffffffffffffffffffffffffffffffffffffffffffffff191614806114e457507f0e89341c000000000000000000000000000000000000000000000000000000007bffffffffffffffffffffffffffffffffffffffffffffffffffffffff1916827bffffffffffffffffffffffffffffffffffffffffffffffffffffffff1916145b806114f457506114f382611a6a565b5b9050919050565b5f73ffffffffffffffffffffffffffffffffffffffff168473ffffffffffffffffffffffffffffffffffffffff160361156b575f6040517f57f447ce0000000000000000000000000000000000000000000000000000000081526004016115629190612b1a565b60405180910390fd5b5f73ffffffffffffffffffffffffffffffffffffffff168573ffffffffffffffffffffffffffffffffffffffff16036115db575f6040517f01a835140000000000000000000000000000000000000000000000000000000081526004016115d29190612b1a565b60405180910390fd5b5f5f6115e78585611ad3565b915091506115f88787848487611b03565b50505050505050565b5f33905090565b5f73ffffffffffffffffffffffffffffffffffffffff168473ffffffffffffffffffffffffffffffffffffffff1603611678575f6040517f57f447ce00000000000000000000000000000000000000000000000000000000815260040161166f9190612b1a565b60405180910390fd5b5f73ffffffffffffffffffffffffffffffffffffffff168573ffffffffffffffffffffffffffffffffffffffff16036116e8575f6040517f01a835140000000000000000000000000000000000000000000000000000000081526004016116df9190612b1a565b60405180910390fd5b6116f58585858585611b03565b5050505050565b611704611601565b73ffffffffffffffffffffffffffffffffffffffff16611722610c3f565b73ffffffffffffffffffffffffffffffffffffffff161461178157611745611601565b6040517f118cdaa70000000000000000000000000000000000000000000000000000000081526004016117789190612b1a565b60405180910390fd5b565b5f60208202602084010151905092915050565b5f60208202602084010151905092915050565b5f60035f9054906101000a900473ffffffffffffffffffffffffffffffffffffffff1690508160035f6101000a81548173ffffffffffffffffffffffffffffffffffffffff021916908373ffffffffffffffffffffffffffffffffffffffff1602179055508173ffffffffffffffffffffffffffffffffffffffff168173ffffffffffffffffffffffffffffffffffffffff167f8be0079c531659141344cd1fd0a4f28419497f9722a3daafe3b4186f6b6457e060405160405180910390a35050565b5f73ffffffffffffffffffffffffffffffffffffffff168273ffffffffffffffffffffffffffffffffffffffff16036118dc575f6040517fced3e1000000000000000000000000000000000000000000000000000000000081526004016118d39190612b1a565b60405180910390fd5b8060015f8573ffffffffffffffffffffffffffffffffffffffff1673ffffffffffffffffffffffffffffffffffffffff1681526020019081526020015f205f8473ffffffffffffffffffffffffffffffffffffffff1673ffffffffffffffffffffffffffffffffffffffff1681526020019081526020015f205f6101000a81548160ff0219169083151502179055508173ffffffffffffffffffffffffffffffffffffffff168373ffffffffffffffffffffffffffffffffffffffff167f17307eab39ab6107e8899845ad3d59bd9653f200f220920489ca2b5937696c31836040516119c8919061243e565b60405180910390a3505050565b5f73ffffffffffffffffffffffffffffffffffffffff168473ffffffffffffffffffffffffffffffffffffffff1603611a45575f6040517f57f447ce000000000000000000000000000000000000000000000000000000008152600401611a3c9190612b1a565b60405180910390fd5b5f5f611a518585611ad3565b91509150611a625f87848487611b03565b505050505050565b5f7f01ffc9a7000000000000000000000000000000000000000000000000000000007bffffffffffffffffffffffffffffffffffffffffffffffffffffffff1916827bffffffffffffffffffffffffffffffffffffffffffffffffffffffff1916149050919050565b60608060405191506001825283602083015260408201905060018152826020820152604081016040529250929050565b611b0f85858585611baf565b5f73ffffffffffffffffffffffffffffffffffffffff168473ffffffffffffffffffffffffffffffffffffffff1614611ba8575f611b4b611601565b90506001845103611b97575f611b6a5f8661179690919063ffffffff16565b90505f611b805f8661179690919063ffffffff16565b9050611b90838989858589611f42565b5050611ba6565b611ba58187878787876120f1565b5b505b5050505050565b8051825114611bf957815181516040517f5b059991000000000000000000000000000000000000000000000000000000008152600401611bf0929190612af3565b60405180910390fd5b5f611c02611601565b90505f5f90505b8351811015611e01575f611c26828661179690919063ffffffff16565b90505f611c3c838661179690919063ffffffff16565b90505f73ffffffffffffffffffffffffffffffffffffffff168873ffffffffffffffffffffffffffffffffffffffff1614611d5f575f5f5f8481526020019081526020015f205f8a73ffffffffffffffffffffffffffffffffffffffff1673ffffffffffffffffffffffffffffffffffffffff1681526020019081526020015f2054905081811015611d0b57888183856040517f03dee4c5000000000000000000000000000000000000000000000000000000008152600401611d029493929190613616565b60405180910390fd5b8181035f5f8581526020019081526020015f205f8b73ffffffffffffffffffffffffffffffffffffffff1673ffffffffffffffffffffffffffffffffffffffff1681526020019081526020015f2081905550505b5f73ffffffffffffffffffffffffffffffffffffffff168773ffffffffffffffffffffffffffffffffffffffff1614611df457805f5f8481526020019081526020015f205f8973ffffffffffffffffffffffffffffffffffffffff1673ffffffffffffffffffffffffffffffffffffffff1681526020019081526020015f205f828254611dec9190613023565b925050819055505b5050806001019050611c09565b506001835103611ebc575f611e1f5f8561179690919063ffffffff16565b90505f611e355f8561179690919063ffffffff16565b90508573ffffffffffffffffffffffffffffffffffffffff168773ffffffffffffffffffffffffffffffffffffffff168473ffffffffffffffffffffffffffffffffffffffff167fc3d58168c5ae7397731d063d5bbf3d657854427343f4c083240f7aacaa2d0f628585604051611ead929190612af3565b60405180910390a45050611f3b565b8373ffffffffffffffffffffffffffffffffffffffff168573ffffffffffffffffffffffffffffffffffffffff168273ffffffffffffffffffffffffffffffffffffffff167f4a39dc06d4c0dbc64b70af90fd698a233a518aa5d07e595d983b8c0526c8f7fb8686604051611f32929190613659565b60405180910390a45b5050505050565b5f8473ffffffffffffffffffffffffffffffffffffffff163b11156120e9578373ffffffffffffffffffffffffffffffffffffffff1663f23a6e6187878686866040518663ffffffff1660e01b8152600401611fa29594939291906136e0565b6020604051808303815f875af1925050508015611fdd57506040513d601f19601f82011682018060405250810190611fda919061374c565b60015b61205e573d805f811461200b576040519150601f19603f3d011682016040523d82523d5f602084013e612010565b606091505b505f81510361205657846040517f57f447ce00000000000000000000000000000000000000000000000000000000815260040161204d9190612b1a565b60405180910390fd5b805181602001fd5b63f23a6e6160e01b7bffffffffffffffffffffffffffffffffffffffffffffffffffffffff1916817bffffffffffffffffffffffffffffffffffffffffffffffffffffffff1916146120e757846040517f57f447ce0000000000000000000000000000000000000000000000000000000081526004016120de9190612b1a565b60405180910390fd5b505b505050505050565b5f8473ffffffffffffffffffffffffffffffffffffffff163b1115612298578373ffffffffffffffffffffffffffffffffffffffff1663bc197c8187878686866040518663ffffffff1660e01b8152600401612151959493929190613777565b6020604051808303815f875af192505050801561218c57506040513d601f19601f82011682018060405250810190612189919061374c565b60015b61220d573d805f81146121ba576040519150601f19603f3d011682016040523d82523d5f602084013e6121bf565b606091505b505f81510361220557846040517f57f447ce0000000000000000000000000000000000000000000000000000000081526004016121fc9190612b1a565b60405180910390fd5b805181602001fd5b63bc197c8160e01b7bffffffffffffffffffffffffffffffffffffffffffffffffffffffff1916817bffffffffffffffffffffffffffffffffffffffffffffffffffffffff19161461229657846040517f57f447ce00000000000000000000000000000000000000000000000000000000815260040161228d9190612b1a565b60405180910390fd5b505b505050505050565b5f604051905090565b5f5ffd5b5f5ffd5b5f73ffffffffffffffffffffffffffffffffffffffff82169050919050565b5f6122da826122b1565b9050919050565b6122ea816122d0565b81146122f4575f5ffd5b50565b5f81359050612305816122e1565b92915050565b5f819050919050565b61231d8161230b565b8114612327575f5ffd5b50565b5f8135905061233881612314565b92915050565b5f5f60408385031215612354576123536122a9565b5b5f612361858286016122f7565b92505060206123728582860161232a565b9150509250929050565b6123858161230b565b82525050565b5f60208201905061239e5f83018461237c565b92915050565b5f7fffffffff0000000000000000000000000000000000000000000000000000000082169050919050565b6123d8816123a4565b81146123e2575f5ffd5b50565b5f813590506123f3816123cf565b92915050565b5f6020828403121561240e5761240d6122a9565b5b5f61241b848285016123e5565b91505092915050565b5f8115159050919050565b61243881612424565b82525050565b5f6020820190506124515f83018461242f565b92915050565b5f6020828403121561246c5761246b6122a9565b5b5f6124798482850161232a565b91505092915050565b5f81519050919050565b5f82825260208201905092915050565b8281835e5f83830152505050565b5f601f19601f8301169050919050565b5f6124c482612482565b6124ce818561248c565b93506124de81856020860161249c565b6124e7816124aa565b840191505092915050565b5f6020820190508181035f83015261250a81846124ba565b905092915050565b5f5f60408385031215612528576125276122a9565b5b5f6125358582860161232a565b92505060206125468582860161232a565b9150509250929050565b612559816122d0565b82525050565b5f60a0820190506125725f83018861237c565b818103602083015261258481876124ba565b90506125936040830186612550565b6125a0606083018561237c565b6125ad608083018461237c565b9695505050505050565b5f5ffd5b7f4e487b71000000000000000000000000000000000000000000000000000000005f52604160045260245ffd5b6125f1826124aa565b810181811067ffffffffffffffff821117156126105761260f6125bb565b5b80604052505050565b5f6126226122a0565b905061262e82826125e8565b919050565b5f67ffffffffffffffff82111561264d5761264c6125bb565b5b602082029050602081019050919050565b5f5ffd5b5f61267461266f84612633565b612619565b905080838252602082019050602084028301858111156126975761269661265e565b5b835b818110156126c057806126ac888261232a565b845260208401935050602081019050612699565b5050509392505050565b5f82601f8301126126de576126dd6125b7565b5b81356126ee848260208601612662565b91505092915050565b5f5ffd5b5f67ffffffffffffffff821115612715576127146125bb565b5b61271e826124aa565b9050602081019050919050565b828183375f83830152505050565b5f61274b612746846126fb565b612619565b905082815260208101848484011115612767576127666126f7565b5b61277284828561272b565b509392505050565b5f82601f83011261278e5761278d6125b7565b5b813561279e848260208601612739565b91505092915050565b5f5f5f5f5f60a086880312156127c0576127bf6122a9565b5b5f6127cd888289016122f7565b95505060206127de888289016122f7565b945050604086013567ffffffffffffffff8111156127ff576127fe6122ad565b5b61280b888289016126ca565b935050606086013567ffffffffffffffff81111561282c5761282b6122ad565b5b612838888289016126ca565b925050608086013567ffffffffffffffff811115612859576128586122ad565b5b6128658882890161277a565b9150509295509295909350565b5f819050919050565b5f61289561289061288b846122b1565b612872565b6122b1565b9050919050565b5f6128a68261287b565b9050919050565b5f6128b78261289c565b9050919050565b6128c7816128ad565b82525050565b5f6020820190506128e05f8301846128be565b92915050565b5f67ffffffffffffffff821115612900576128ff6125bb565b5b602082029050602081019050919050565b5f61292361291e846128e6565b612619565b905080838252602082019050602084028301858111156129465761294561265e565b5b835b8181101561296f578061295b88826122f7565b845260208401935050602081019050612948565b5050509392505050565b5f82601f83011261298d5761298c6125b7565b5b813561299d848260208601612911565b91505092915050565b5f5f604083850312156129bc576129bb6122a9565b5b5f83013567ffffffffffffffff8111156129d9576129d86122ad565b5b6129e585828601612979565b925050602083013567ffffffffffffffff811115612a0657612a056122ad565b5b612a12858286016126ca565b9150509250929050565b5f81519050919050565b5f82825260208201905092915050565b5f819050602082019050919050565b612a4e8161230b565b82525050565b5f612a5f8383612a45565b60208301905092915050565b5f602082019050919050565b5f612a8182612a1c565b612a8b8185612a26565b9350612a9683612a36565b805f5b83811015612ac6578151612aad8882612a54565b9750612ab883612a6b565b925050600181019050612a99565b5085935050505092915050565b5f6020820190508181035f830152612aeb8184612a77565b905092915050565b5f604082019050612b065f83018561237c565b612b13602083018461237c565b9392505050565b5f602082019050612b2d5f830184612550565b92915050565b612b3c81612424565b8114612b46575f5ffd5b50565b5f81359050612b5781612b33565b92915050565b5f5f60408385031215612b7357612b726122a9565b5b5f612b80858286016122f7565b9250506020612b9185828601612b49565b9150509250929050565b5f5ffd5b5f5f83601f840112612bb457612bb36125b7565b5b8235905067ffffffffffffffff811115612bd157612bd0612b9b565b5b602083019150836001820283011115612bed57612bec61265e565b5b9250929050565b5f5f5f5f60608587031215612c0c57612c0b6122a9565b5b5f85013567ffffffffffffffff811115612c2957612c286122ad565b5b612c3587828801612b9f565b94509450506020612c488782880161232a565b9250506040612c598782880161232a565b91505092959194509250565b5f5f60408385031215612c7b57612c7a6122a9565b5b5f612c88858286016122f7565b9250506020612c99858286016122f7565b9150509250929050565b5f5f5f5f5f60a08688031215612cbc57612cbb6122a9565b5b5f612cc9888289016122f7565b9550506020612cda888289016122f7565b9450506040612ceb8882890161232a565b9350506060612cfc8882890161232a565b925050608086013567ffffffffffffffff811115612d1d57612d1c6122ad565b5b612d298882890161277a565b9150509295509295909350565b5f60208284031215612d4b57612d4a6122a9565b5b5f612d58848285016122f7565b91505092915050565b7f4e487b71000000000000000000000000000000000000000000000000000000005f52602260045260245ffd5b5f6002820490506001821680612da557607f821691505b602082108103612db857612db7612d61565b5b50919050565b7f446553746f636b3a20616d6f756e74206d757374206265203e203000000000005f82015250565b5f612df2601b8361248c565b9150612dfd82612dbe565b602082019050919050565b5f6020820190508181035f830152612e1f81612de6565b9050919050565b7f446553746f636b3a20636f6d70616e7920646f6573206e6f74206578697374005f82015250565b5f612e5a601f8361248c565b9150612e6582612e26565b602082019050919050565b5f6020820190508181035f830152612e8781612e4e565b9050919050565b7f446553746f636b3a20696e73756666696369656e742073686172652062616c615f8201527f6e63650000000000000000000000000000000000000000000000000000000000602082015250565b5f612ee860238361248c565b9150612ef382612e8e565b604082019050919050565b5f6020820190508181035f830152612f1581612edc565b9050919050565b7f4e487b71000000000000000000000000000000000000000000000000000000005f52601160045260245ffd5b5f612f538261230b565b9150612f5e8361230b565b9250828202612f6c8161230b565b91508282048414831517612f8357612f82612f1c565b5b5092915050565b5f604082019050612f9d5f830185612550565b612faa602083018461237c565b9392505050565b5f81519050612fbf81612b33565b92915050565b5f60208284031215612fda57612fd96122a9565b5b5f612fe784828501612fb1565b91505092915050565b5f612ffa8261230b565b91506130058361230b565b925082820390508181111561301d5761301c612f1c565b5b92915050565b5f61302d8261230b565b91506130388361230b565b92508282019050808211156130505761304f612f1c565b5b92915050565b5f6040820190506130695f830185612550565b6130766020830184612550565b9392505050565b5f8151905061308b81612314565b92915050565b5f602082840312156130a6576130a56122a9565b5b5f6130b38482850161307d565b91505092915050565b7f446553746f636b3a206e6f206665657320746f207769746864726177000000005f82015250565b5f6130f0601c8361248c565b91506130fb826130bc565b602082019050919050565b5f6020820190508181035f83015261311d816130e4565b9050919050565b7f4e487b71000000000000000000000000000000000000000000000000000000005f52603260045260245ffd5b7f446553746f636b3a20746f74616c20737570706c79206d757374206265203e205f8201527f3000000000000000000000000000000000000000000000000000000000000000602082015250565b5f6131ab60218361248c565b91506131b682613151565b604082019050919050565b5f6020820190508181035f8301526131d88161319f565b9050919050565b7f446553746f636b3a20696e697469616c207072696365206d757374206265203e5f8201527f2030000000000000000000000000000000000000000000000000000000000000602082015250565b5f61323960228361248c565b9150613244826131df565b604082019050919050565b5f6020820190508181035f8301526132668161322d565b9050919050565b5f6060820190506132805f830186612550565b61328d6020830185612550565b61329a604083018461237c565b949350505050565b5f6132ac8261230b565b91507fffffffffffffffffffffffffffffffffffffffffffffffffffffffffffffffff82036132de576132dd612f1c565b5b600182019050919050565b5f819050815f5260205f209050919050565b5f6020601f8301049050919050565b5f82821b905092915050565b5f600883026133457fffffffffffffffffffffffffffffffffffffffffffffffffffffffffffffffff8261330a565b61334f868361330a565b95508019841693508086168417925050509392505050565b5f61338161337c6133778461230b565b612872565b61230b565b9050919050565b5f819050919050565b61339a83613367565b6133ae6133a682613388565b848454613316565b825550505050565b5f5f905090565b6133c56133b6565b6133d0818484613391565b505050565b5b818110156133f3576133e85f826133bd565b6001810190506133d6565b5050565b601f82111561343857613409816132e9565b613412846132fb565b81016020851015613421578190505b61343561342d856132fb565b8301826133d5565b50505b505050565b5f82821c905092915050565b5f6134585f198460080261343d565b1980831691505092915050565b5f6134708383613449565b9150826002028217905092915050565b61348982612482565b67ffffffffffffffff8111156134a2576134a16125bb565b5b6134ac8254612d8e565b6134b78282856133f7565b5f60209050601f8311600181146134e8575f84156134d6578287015190505b6134e08582613465565b865550613547565b601f1984166134f6866132e9565b5f5b8281101561351d578489015182556001820191506020850194506020810190506134f8565b8683101561353a5784890151613536601f891682613449565b8355505b6001600288020188555050505b505050505050565b5f61355a838561248c565b935061356783858461272b565b613570836124aa565b840190509392505050565b5f6060820190508181035f83015261359481868861354f565b90506135a3602083018561237c565b6135b0604083018461237c565b95945050505050565b7f4e487b71000000000000000000000000000000000000000000000000000000005f52601260045260245ffd5b5f6135f08261230b565b91506135fb8361230b565b92508261360b5761360a6135b9565b5b828204905092915050565b5f6080820190506136295f830187612550565b613636602083018661237c565b613643604083018561237c565b613650606083018461237c565b95945050505050565b5f6040820190508181035f8301526136718185612a77565b905081810360208301526136858184612a77565b90509392505050565b5f81519050919050565b5f82825260208201905092915050565b5f6136b28261368e565b6136bc8185613698565b93506136cc81856020860161249c565b6136d5816124aa565b840191505092915050565b5f60a0820190506136f35f830188612550565b6137006020830187612550565b61370d604083018661237c565b61371a606083018561237c565b818103608083015261372c81846136a8565b90509695505050505050565b5f81519050613746816123cf565b92915050565b5f60208284031215613761576137606122a9565b5b5f61376e84828501613738565b91505092915050565b5f60a08201905061378a5f830188612550565b6137976020830187612550565b81810360408301526137a98186612a77565b905081810360608301526137bd8185612a77565b905081810360808301526137d181846136a8565b9050969550505050505056fea2646970667358221220ab2651c556c37b72fa4bfa4b481acef769682b9f68d5134191dd2567ec9e39ea64736f6c634300081e0033","linkReferences":{}},"methodIdentifiers":{"REGISTRATION_FEE()":"64b4f751","balanceOf(address,uint256)":"00fdd58e","balanceOfBatch(address[],uint256[])":"4e1273f4","buyShares(uint256,uint256)":"beebc5da","companies(uint256)":"2813d19d","destockToken()":"43ae8a65","getSharePrice(uint256)":"bca7d4e1","isApprovedForAll(address,address)":"e985e9c5","liquidityPools(uint256)":"79d747be","nextCompanyId()":"d8d3c829","owner()":"8da5cb5b","registerCompany(string,uint256,uint256)":"ba8c85ae","renounceOwnership()":"715018a6","safeBatchTransferFrom(address,address,uint256[],uint256[],bytes)":"2eb2c2d6","safeTransferFrom(address,address,uint256,uint256,bytes)":"f242432a","sellShares(uint256,uint256)":"2279a970","setApprovalForAll(address,bool)":"a22cb465","supportsInterface(bytes4)":"01ffc9a7","transferOwnership(address)":"f2fde38b","uri(uint256)":"0e89341c","withdrawFees()":"476343ee"},"id":39}